{
  "abi": [
    {
      "type": "constructor",
      "inputs": [
        {
          "name": "_name",
          "type": "string",
          "internalType": "string"
        },
        {
          "name": "_symbol",
          "type": "string",
          "internalType": "string"
        },
        {
          "name": "_minter",
          "type": "address",
          "internalType": "address"
        },
        {
          "name": "_owner",
          "type": "address",
          "internalType": "address"
        }
      ],
      "stateMutability": "nonpayable"
    },
    {
      "type": "function",
      "name": "CLOCK_MODE",
      "inputs": [],
      "outputs": [
        {
          "name": "",
          "type": "string",
          "internalType": "string"
        }
      ],
      "stateMutability": "view"
    },
    {
      "type": "function",
      "name": "DOMAIN_SEPARATOR",
      "inputs": [],
      "outputs": [
        {
          "name": "",
          "type": "bytes32",
          "internalType": "bytes32"
        }
      ],
      "stateMutability": "view"
    },
    {
      "type": "function",
      "name": "allowance",
      "inputs": [
        {
          "name": "owner",
          "type": "address",
          "internalType": "address"
        },
        {
          "name": "spender",
          "type": "address",
          "internalType": "address"
        }
      ],
      "outputs": [
        {
          "name": "",
          "type": "uint256",
          "internalType": "uint256"
        }
      ],
      "stateMutability": "view"
    },
    {
      "type": "function",
      "name": "approve",
      "inputs": [
        {
          "name": "spender",
          "type": "address",
          "internalType": "address"
        },
        {
          "name": "value",
          "type": "uint256",
          "internalType": "uint256"
        }
      ],
      "outputs": [
        {
          "name": "",
          "type": "bool",
          "internalType": "bool"
        }
      ],
      "stateMutability": "nonpayable"
    },
    {
      "type": "function",
      "name": "balanceOf",
      "inputs": [
        {
          "name": "account",
          "type": "address",
          "internalType": "address"
        }
      ],
      "outputs": [
        {
          "name": "",
          "type": "uint256",
          "internalType": "uint256"
        }
      ],
      "stateMutability": "view"
    },
    {
      "type": "function",
      "name": "burn",
      "inputs": [
        {
          "name": "value",
          "type": "uint256",
          "internalType": "uint256"
        }
      ],
      "outputs": [],
      "stateMutability": "nonpayable"
    },
    {
      "type": "function",
      "name": "burnFrom",
      "inputs": [
        {
          "name": "account",
          "type": "address",
          "internalType": "address"
        },
        {
          "name": "value",
          "type": "uint256",
          "internalType": "uint256"
        }
      ],
      "outputs": [],
      "stateMutability": "nonpayable"
    },
    {
      "type": "function",
      "name": "checkpoints",
      "inputs": [
        {
          "name": "account",
          "type": "address",
          "internalType": "address"
        },
        {
          "name": "pos",
          "type": "uint32",
          "internalType": "uint32"
        }
      ],
      "outputs": [
        {
          "name": "",
          "type": "tuple",
          "internalType": "struct Checkpoints.Checkpoint208",
          "components": [
            {
              "name": "_key",
              "type": "uint48",
              "internalType": "uint48"
            },
            {
              "name": "_value",
              "type": "uint208",
              "internalType": "uint208"
            }
          ]
        }
      ],
      "stateMutability": "view"
    },
    {
      "type": "function",
      "name": "clock",
      "inputs": [],
      "outputs": [
        {
          "name": "",
          "type": "uint48",
          "internalType": "uint48"
        }
      ],
      "stateMutability": "view"
    },
    {
      "type": "function",
      "name": "decimals",
      "inputs": [],
      "outputs": [
        {
          "name": "",
          "type": "uint8",
          "internalType": "uint8"
        }
      ],
      "stateMutability": "view"
    },
    {
      "type": "function",
      "name": "delegate",
      "inputs": [
        {
          "name": "delegatee",
          "type": "address",
          "internalType": "address"
        }
      ],
      "outputs": [],
      "stateMutability": "nonpayable"
    },
    {
      "type": "function",
      "name": "delegateBySig",
      "inputs": [
        {
          "name": "delegatee",
          "type": "address",
          "internalType": "address"
        },
        {
          "name": "nonce",
          "type": "uint256",
          "internalType": "uint256"
        },
        {
          "name": "expiry",
          "type": "uint256",
          "internalType": "uint256"
        },
        {
          "name": "v",
          "type": "uint8",
          "internalType": "uint8"
        },
        {
          "name": "r",
          "type": "bytes32",
          "internalType": "bytes32"
        },
        {
          "name": "s",
          "type": "bytes32",
          "internalType": "bytes32"
        }
      ],
      "outputs": [],
      "stateMutability": "nonpayable"
    },
    {
      "type": "function",
      "name": "delegates",
      "inputs": [
        {
          "name": "account",
          "type": "address",
          "internalType": "address"
        }
      ],
      "outputs": [
        {
          "name": "",
          "type": "address",
          "internalType": "address"
        }
      ],
      "stateMutability": "view"
    },
    {
      "type": "function",
      "name": "eip712Domain",
      "inputs": [],
      "outputs": [
        {
          "name": "fields",
          "type": "bytes1",
          "internalType": "bytes1"
        },
        {
          "name": "name",
          "type": "string",
          "internalType": "string"
        },
        {
          "name": "version",
          "type": "string",
          "internalType": "string"
        },
        {
          "name": "chainId",
          "type": "uint256",
          "internalType": "uint256"
        },
        {
          "name": "verifyingContract",
          "type": "address",
          "internalType": "address"
        },
        {
          "name": "salt",
          "type": "bytes32",
          "internalType": "bytes32"
        },
        {
          "name": "extensions",
          "type": "uint256[]",
          "internalType": "uint256[]"
        }
      ],
      "stateMutability": "view"
    },
    {
      "type": "function",
      "name": "getPastTotalSupply",
      "inputs": [
        {
          "name": "timepoint",
          "type": "uint256",
          "internalType": "uint256"
        }
      ],
      "outputs": [
        {
          "name": "",
          "type": "uint256",
          "internalType": "uint256"
        }
      ],
      "stateMutability": "view"
    },
    {
      "type": "function",
      "name": "getPastVotes",
      "inputs": [
        {
          "name": "account",
          "type": "address",
          "internalType": "address"
        },
        {
          "name": "timepoint",
          "type": "uint256",
          "internalType": "uint256"
        }
      ],
      "outputs": [
        {
          "name": "",
          "type": "uint256",
          "internalType": "uint256"
        }
      ],
      "stateMutability": "view"
    },
    {
      "type": "function",
      "name": "getVotes",
      "inputs": [
        {
          "name": "account",
          "type": "address",
          "internalType": "address"
        }
      ],
      "outputs": [
        {
          "name": "",
          "type": "uint256",
          "internalType": "uint256"
        }
      ],
      "stateMutability": "view"
    },
    {
      "type": "function",
      "name": "mint",
      "inputs": [
        {
          "name": "_account",
          "type": "address",
          "internalType": "address"
        },
        {
          "name": "_amount",
          "type": "uint256",
          "internalType": "uint256"
        }
      ],
      "outputs": [],
      "stateMutability": "nonpayable"
    },
    {
      "type": "function",
      "name": "minter",
      "inputs": [],
      "outputs": [
        {
          "name": "",
          "type": "address",
          "internalType": "address"
        }
      ],
      "stateMutability": "view"
    },
    {
      "type": "function",
      "name": "name",
      "inputs": [],
      "outputs": [
        {
          "name": "",
          "type": "string",
          "internalType": "string"
        }
      ],
      "stateMutability": "view"
    },
    {
      "type": "function",
      "name": "nonces",
      "inputs": [
        {
          "name": "_owner",
          "type": "address",
          "internalType": "address"
        }
      ],
      "outputs": [
        {
          "name": "",
          "type": "uint256",
          "internalType": "uint256"
        }
      ],
      "stateMutability": "view"
    },
    {
      "type": "function",
      "name": "numCheckpoints",
      "inputs": [
        {
          "name": "account",
          "type": "address",
          "internalType": "address"
        }
      ],
      "outputs": [
        {
          "name": "",
          "type": "uint32",
          "internalType": "uint32"
        }
      ],
      "stateMutability": "view"
    },
    {
      "type": "function",
      "name": "owner",
      "inputs": [],
      "outputs": [
        {
          "name": "",
          "type": "address",
          "internalType": "address"
        }
      ],
      "stateMutability": "view"
    },
    {
      "type": "function",
      "name": "permit",
      "inputs": [
        {
          "name": "owner",
          "type": "address",
          "internalType": "address"
        },
        {
          "name": "spender",
          "type": "address",
          "internalType": "address"
        },
        {
          "name": "value",
          "type": "uint256",
          "internalType": "uint256"
        },
        {
          "name": "deadline",
          "type": "uint256",
          "internalType": "uint256"
        },
        {
          "name": "v",
          "type": "uint8",
          "internalType": "uint8"
        },
        {
          "name": "r",
          "type": "bytes32",
          "internalType": "bytes32"
        },
        {
          "name": "s",
          "type": "bytes32",
          "internalType": "bytes32"
        }
      ],
      "outputs": [],
      "stateMutability": "nonpayable"
    },
    {
      "type": "function",
      "name": "renounceOwnership",
      "inputs": [],
      "outputs": [],
      "stateMutability": "nonpayable"
    },
    {
      "type": "function",
      "name": "setMinter",
      "inputs": [
        {
          "name": "newMinter",
          "type": "address",
          "internalType": "address"
        }
      ],
      "outputs": [],
      "stateMutability": "nonpayable"
    },
    {
      "type": "function",
      "name": "symbol",
      "inputs": [],
      "outputs": [
        {
          "name": "",
          "type": "string",
          "internalType": "string"
        }
      ],
      "stateMutability": "view"
    },
    {
      "type": "function",
      "name": "totalSupply",
      "inputs": [],
      "outputs": [
        {
          "name": "",
          "type": "uint256",
          "internalType": "uint256"
        }
      ],
      "stateMutability": "view"
    },
    {
      "type": "function",
      "name": "transfer",
      "inputs": [
        {
          "name": "to",
          "type": "address",
          "internalType": "address"
        },
        {
          "name": "value",
          "type": "uint256",
          "internalType": "uint256"
        }
      ],
      "outputs": [
        {
          "name": "",
          "type": "bool",
          "internalType": "bool"
        }
      ],
      "stateMutability": "nonpayable"
    },
    {
      "type": "function",
      "name": "transferFrom",
      "inputs": [
        {
          "name": "from",
          "type": "address",
          "internalType": "address"
        },
        {
          "name": "to",
          "type": "address",
          "internalType": "address"
        },
        {
          "name": "value",
          "type": "uint256",
          "internalType": "uint256"
        }
      ],
      "outputs": [
        {
          "name": "",
          "type": "bool",
          "internalType": "bool"
        }
      ],
      "stateMutability": "nonpayable"
    },
    {
      "type": "function",
      "name": "transferOwnership",
      "inputs": [
        {
          "name": "newOwner",
          "type": "address",
          "internalType": "address"
        }
      ],
      "outputs": [],
      "stateMutability": "nonpayable"
    },
    {
      "type": "event",
      "name": "Approval",
      "inputs": [
        {
          "name": "owner",
          "type": "address",
          "indexed": true,
          "internalType": "address"
        },
        {
          "name": "spender",
          "type": "address",
          "indexed": true,
          "internalType": "address"
        },
        {
          "name": "value",
          "type": "uint256",
          "indexed": false,
          "internalType": "uint256"
        }
      ],
      "anonymous": false
    },
    {
      "type": "event",
      "name": "DelegateChanged",
      "inputs": [
        {
          "name": "delegator",
          "type": "address",
          "indexed": true,
          "internalType": "address"
        },
        {
          "name": "fromDelegate",
          "type": "address",
          "indexed": true,
          "internalType": "address"
        },
        {
          "name": "toDelegate",
          "type": "address",
          "indexed": true,
          "internalType": "address"
        }
      ],
      "anonymous": false
    },
    {
      "type": "event",
      "name": "DelegateVotesChanged",
      "inputs": [
        {
          "name": "delegate",
          "type": "address",
          "indexed": true,
          "internalType": "address"
        },
        {
          "name": "previousVotes",
          "type": "uint256",
          "indexed": false,
          "internalType": "uint256"
        },
        {
          "name": "newVotes",
          "type": "uint256",
          "indexed": false,
          "internalType": "uint256"
        }
      ],
      "anonymous": false
    },
    {
      "type": "event",
      "name": "EIP712DomainChanged",
      "inputs": [],
      "anonymous": false
    },
    {
      "type": "event",
      "name": "NewMinter",
      "inputs": [
        {
          "name": "newMinter",
          "type": "address",
          "indexed": false,
          "internalType": "address"
        }
      ],
      "anonymous": false
    },
    {
      "type": "event",
      "name": "OwnershipTransferred",
      "inputs": [
        {
          "name": "previousOwner",
          "type": "address",
          "indexed": true,
          "internalType": "address"
        },
        {
          "name": "newOwner",
          "type": "address",
          "indexed": true,
          "internalType": "address"
        }
      ],
      "anonymous": false
    },
    {
      "type": "event",
      "name": "Transfer",
      "inputs": [
        {
          "name": "from",
          "type": "address",
          "indexed": true,
          "internalType": "address"
        },
        {
          "name": "to",
          "type": "address",
          "indexed": true,
          "internalType": "address"
        },
        {
          "name": "value",
          "type": "uint256",
          "indexed": false,
          "internalType": "uint256"
        }
      ],
      "anonymous": false
    },
    {
      "type": "error",
      "name": "CallerNotMinter",
      "inputs": [
        {
          "name": "caller",
          "type": "address",
          "internalType": "address"
        }
      ]
    },
    {
      "type": "error",
      "name": "CheckpointUnorderedInsertion",
      "inputs": []
    },
    {
      "type": "error",
      "name": "ECDSAInvalidSignature",
      "inputs": []
    },
    {
      "type": "error",
      "name": "ECDSAInvalidSignatureLength",
      "inputs": [
        {
          "name": "length",
          "type": "uint256",
          "internalType": "uint256"
        }
      ]
    },
    {
      "type": "error",
      "name": "ECDSAInvalidSignatureS",
      "inputs": [
        {
          "name": "s",
          "type": "bytes32",
          "internalType": "bytes32"
        }
      ]
    },
    {
      "type": "error",
      "name": "ERC20ExceededSafeSupply",
      "inputs": [
        {
          "name": "increasedSupply",
          "type": "uint256",
          "internalType": "uint256"
        },
        {
          "name": "cap",
          "type": "uint256",
          "internalType": "uint256"
        }
      ]
    },
    {
      "type": "error",
      "name": "ERC20InsufficientAllowance",
      "inputs": [
        {
          "name": "spender",
          "type": "address",
          "internalType": "address"
        },
        {
          "name": "allowance",
          "type": "uint256",
          "internalType": "uint256"
        },
        {
          "name": "needed",
          "type": "uint256",
          "internalType": "uint256"
        }
      ]
    },
    {
      "type": "error",
      "name": "ERC20InsufficientBalance",
      "inputs": [
        {
          "name": "sender",
          "type": "address",
          "internalType": "address"
        },
        {
          "name": "balance",
          "type": "uint256",
          "internalType": "uint256"
        },
        {
          "name": "needed",
          "type": "uint256",
          "internalType": "uint256"
        }
      ]
    },
    {
      "type": "error",
      "name": "ERC20InvalidApprover",
      "inputs": [
        {
          "name": "approver",
          "type": "address",
          "internalType": "address"
        }
      ]
    },
    {
      "type": "error",
      "name": "ERC20InvalidReceiver",
      "inputs": [
        {
          "name": "receiver",
          "type": "address",
          "internalType": "address"
        }
      ]
    },
    {
      "type": "error",
      "name": "ERC20InvalidSender",
      "inputs": [
        {
          "name": "sender",
          "type": "address",
          "internalType": "address"
        }
      ]
    },
    {
      "type": "error",
      "name": "ERC20InvalidSpender",
      "inputs": [
        {
          "name": "spender",
          "type": "address",
          "internalType": "address"
        }
      ]
    },
    {
      "type": "error",
      "name": "ERC2612ExpiredSignature",
      "inputs": [
        {
          "name": "deadline",
          "type": "uint256",
          "internalType": "uint256"
        }
      ]
    },
    {
      "type": "error",
      "name": "ERC2612InvalidSigner",
      "inputs": [
        {
          "name": "signer",
          "type": "address",
          "internalType": "address"
        },
        {
          "name": "owner",
          "type": "address",
          "internalType": "address"
        }
      ]
    },
    {
      "type": "error",
      "name": "ERC5805FutureLookup",
      "inputs": [
        {
          "name": "timepoint",
          "type": "uint256",
          "internalType": "uint256"
        },
        {
          "name": "clock",
          "type": "uint48",
          "internalType": "uint48"
        }
      ]
    },
    {
      "type": "error",
      "name": "ERC6372InconsistentClock",
      "inputs": []
    },
    {
      "type": "error",
      "name": "InvalidAccountNonce",
      "inputs": [
        {
          "name": "account",
          "type": "address",
          "internalType": "address"
        },
        {
          "name": "currentNonce",
          "type": "uint256",
          "internalType": "uint256"
        }
      ]
    },
    {
      "type": "error",
      "name": "InvalidMinterZeroAddress",
      "inputs": []
    },
    {
      "type": "error",
      "name": "InvalidShortString",
      "inputs": []
    },
    {
      "type": "error",
      "name": "OwnableInvalidOwner",
      "inputs": [
        {
          "name": "owner",
          "type": "address",
          "internalType": "address"
        }
      ]
    },
    {
      "type": "error",
      "name": "OwnableUnauthorizedAccount",
      "inputs": [
        {
          "name": "account",
          "type": "address",
          "internalType": "address"
        }
      ]
    },
    {
      "type": "error",
      "name": "SafeCastOverflowedUintDowncast",
      "inputs": [
        {
          "name": "bits",
          "type": "uint8",
          "internalType": "uint8"
        },
        {
          "name": "value",
          "type": "uint256",
          "internalType": "uint256"
        }
      ]
    },
    {
      "type": "error",
      "name": "StringTooLong",
      "inputs": [
        {
          "name": "str",
          "type": "string",
          "internalType": "string"
        }
      ]
    },
    {
      "type": "error",
      "name": "VotesExpiredSignature",
      "inputs": [
        {
          "name": "expiry",
          "type": "uint256",
          "internalType": "uint256"
        }
      ]
    }
  ],
  "bytecode": {
    "object": "0x6101606040523480156200001257600080fd5b506040516200269938038062002699833981016040819052620000359162000351565b8084848180604051806040016040528060018152602001603160f81b815250848481600390816200006791906200046f565b5060046200007682826200046f565b50620000889150839050600562000199565b610120526200009981600662000199565b61014052815160208084019190912060e052815190820120610100524660a0526200012760e05161010051604080517f8b73c3c69bb8fe3d512ecc4cf759cc79239f7b179b0ffacaa9a75d522b39400f60208201529081019290925260608201524660808201523060a082015260009060c00160405160208183030381529060405280519060200120905090565b60805250503060c0525050506001600160a01b0381166200016357604051631e4fbdf760e01b8152600060048201526024015b60405180910390fd5b6200016e81620001d2565b5050600c80546001600160a01b0319166001600160a01b039290921691909117905550620005959050565b6000602083511015620001b957620001b18362000224565b9050620001cc565b81620001c684826200046f565b5060ff90505b92915050565b600b80546001600160a01b038381166001600160a01b0319831681179093556040519116919082907f8be0079c531659141344cd1fd0a4f28419497f9722a3daafe3b4186f6b6457e090600090a35050565b600080829050601f8151111562000252578260405163305a27a960e01b81526004016200015a91906200053b565b80516200025f8262000570565b179392505050565b634e487b7160e01b600052604160045260246000fd5b60005b838110156200029a57818101518382015260200162000280565b50506000910152565b600082601f830112620002b557600080fd5b81516001600160401b0380821115620002d257620002d262000267565b604051601f8301601f19908116603f01168101908282118183101715620002fd57620002fd62000267565b816040528381528660208588010111156200031757600080fd5b6200032a8460208301602089016200027d565b9695505050505050565b80516001600160a01b03811681146200034c57600080fd5b919050565b600080600080608085870312156200036857600080fd5b84516001600160401b03808211156200038057600080fd5b6200038e88838901620002a3565b95506020870151915080821115620003a557600080fd5b50620003b487828801620002a3565b935050620003c56040860162000334565b9150620003d56060860162000334565b905092959194509250565b600181811c90821680620003f557607f821691505b6020821081036200041657634e487b7160e01b600052602260045260246000fd5b50919050565b601f8211156200046a57600081815260208120601f850160051c81016020861015620004455750805b601f850160051c820191505b81811015620004665782815560010162000451565b5050505b505050565b81516001600160401b038111156200048b576200048b62000267565b620004a3816200049c8454620003e0565b846200041c565b602080601f831160018114620004db5760008415620004c25750858301515b600019600386901b1c1916600185901b17855562000466565b600085815260208120601f198616915b828110156200050c57888601518255948401946001909101908401620004eb565b50858210156200052b5787850151600019600388901b60f8161c191681555b5050505050600190811b01905550565b60208152600082518060208401526200055c8160408501602087016200027d565b601f01601f19169190910160400192915050565b80516020808301519190811015620004165760001960209190910360031b1b16919050565b60805160a05160c05160e0516101005161012051610140516120a9620005f06000396000610f4c01526000610f1f01526000610c4701526000610c1f01526000610b7a01526000610ba401526000610bce01526120a96000f3fe608060405234801561001057600080fd5b50600436106101755760003560e01c806306fdde031461017a5780630754617214610198578063095ea7b3146101b857806318160ddd146101db57806323b872dd146101ed578063313ce567146102005780633644e5151461020f5780633a46b1a81461021757806340c10f191461022a57806342966c681461023f5780634bf5d7e914610252578063587cde1e1461025a5780635c19a95c1461026d5780636fcfff451461028057806370a08231146102a8578063715018a6146102bb57806379cc6790146102c35780637ecebe00146102d657806384b0196e146102e95780638da5cb5b146103045780638e539e8c1461030c57806391ddadf41461031f57806395d89b411461033e5780639ab24eb014610346578063a9059cbb14610359578063c3cda5201461036c578063d505accf1461037f578063dd62ed3e14610392578063f1127ed8146103a5578063f2fde38b146103e4578063fca3b5aa146103f7575b600080fd5b61018261040a565b60405161018f9190611c65565b60405180910390f35b600c546101ab906001600160a01b031681565b60405161018f9190611c78565b6101cb6101c6366004611ca8565b61049c565b604051901515815260200161018f565b6002545b60405190815260200161018f565b6101cb6101fb366004611cd2565b6104b6565b6040516012815260200161018f565b6101df6104da565b6101df610225366004611ca8565b6104e9565b61023d610238366004611ca8565b61056f565b005b61023d61024d366004611d0e565b6105aa565b6101826105b7565b6101ab610268366004611d27565b610620565b61023d61027b366004611d27565b61063e565b61029361028e366004611d27565b610649565b60405163ffffffff909116815260200161018f565b6101df6102b6366004611d27565b610654565b61023d61066f565b61023d6102d1366004611ca8565b610683565b6101df6102e4366004611d27565b610698565b6102f16106b6565b60405161018f9796959493929190611d42565b6101ab6106fc565b6101df61031a366004611d0e565b61070b565b610327610775565b60405165ffffffffffff909116815260200161018f565b61018261077f565b6101df610354366004611d27565b61078e565b6101cb610367366004611ca8565b6107be565b61023d61037a366004611de9565b6107cc565b61023d61038d366004611e41565b610889565b6101df6103a0366004611eab565b6109a5565b6103b86103b3366004611ede565b6109d0565b60408051825165ffffffffffff1681526020928301516001600160d01b0316928101929092520161018f565b61023d6103f2366004611d27565b6109e9565b61023d610405366004611d27565b610a24565b60606003805461041990611f1e565b80601f016020809104026020016040519081016040528092919081815260200182805461044590611f1e565b80156104925780601f1061046757610100808354040283529160200191610492565b820191906000526020600020905b81548152906001019060200180831161047557829003601f168201915b5050505050905090565b6000336104aa818585610aa9565b60019150505b92915050565b6000336104c4858285610abb565b6104cf858585610b0e565b506001949350505050565b60006104e4610b6d565b905090565b6000806104f4610775565b90508065ffffffffffff16831061053457604051637669fc0f60e11b81526004810184905265ffffffffffff821660248201526044015b60405180910390fd5b61055e61054084610c98565b6001600160a01b038616600090815260096020526040902090610cca565b6001600160d01b0316949350505050565b600c546001600160a01b0316331461059c5733604051632fdab94f60e11b815260040161052b9190611c78565b6105a68282610d80565b5050565b6105b43382610db6565b50565b60606105c1610dec565b65ffffffffffff166105d1610775565b65ffffffffffff16146105f7576040516301bfc1c560e61b815260040160405180910390fd5b5060408051808201909152600e81526d06d6f64653d74696d657374616d760941b602082015290565b6001600160a01b039081166000908152600860205260409020541690565b336105a68183610df7565b60006104b082610e72565b6001600160a01b031660009081526020819052604090205490565b610677610e94565b6106816000610ec6565b565b61068e823383610abb565b6105a68282610db6565b6001600160a01b0381166000908152600760205260408120546104b0565b6000606080600080600060606106ca610f18565b6106d2610f45565b60408051600080825260208201909252600f60f81b9b939a50919850469750309650945092509050565b600b546001600160a01b031690565b600080610716610775565b90508065ffffffffffff16831061075157604051637669fc0f60e11b81526004810184905265ffffffffffff8216602482015260440161052b565b61076561075d84610c98565b600a90610cca565b6001600160d01b03169392505050565b60006104e4610dec565b60606004805461041990611f1e565b6001600160a01b03811660009081526009602052604081206107af90610f72565b6001600160d01b031692915050565b6000336104aa818585610b0e565b834211156107f057604051632341d78760e11b81526004810185905260240161052b565b604080517fe48329057bfd03d55e49b547132e39cffd9c1820ad7b9d4c5307691425d15adf60208201526001600160a01b03881691810191909152606081018690526080810185905260009061086a906108629060a00160405160208183030381529060405280519060200120610fab565b858585610fd8565b90506108768187611006565b6108808188610df7565b50505050505050565b834211156108ad5760405163313c898160e11b81526004810185905260240161052b565b60007f6e71edae12b1b97f4d1f60370fef10105fa2faae0126114a169c64845d6126c98888886108dc8c611045565b6040805160208101969096526001600160a01b0394851690860152929091166060840152608083015260a082015260c0810186905260e001604051602081830303815290604052805190602001209050600061093782610fab565b9050600061094782878787610fd8565b9050896001600160a01b0316816001600160a01b03161461098e576040516325c0072360e11b81526001600160a01b0380831660048301528b16602482015260440161052b565b6109998a8a8a610aa9565b50505050505050505050565b6001600160a01b03918216600090815260016020908152604080832093909416825291909152205490565b6109d8611c08565b6109e28383611068565b9392505050565b6109f1610e94565b6001600160a01b038116610a1b576000604051631e4fbdf760e01b815260040161052b9190611c78565b6105b481610ec6565b610a2c610e94565b6001600160a01b038116610a53576040516304a208c760e01b815260040160405180910390fd5b600c80546001600160a01b0319166001600160a01b0383161790556040517f6adffd5c93085d835dac6f3b40adf7c242ca4b3284048d20c3d8a501748dc97390610a9e908390611c78565b60405180910390a150565b610ab68383836001611092565b505050565b6000610ac784846109a5565b90506000198114610b085781811015610af957828183604051637dc7a0d960e11b815260040161052b93929190611f58565b610b0884848484036000611092565b50505050565b6001600160a01b038316610b38576000604051634b637e8f60e11b815260040161052b9190611c78565b6001600160a01b038216610b6257600060405163ec442f0560e01b815260040161052b9190611c78565b610ab6838383611167565b6000306001600160a01b037f000000000000000000000000000000000000000000000000000000000000000016148015610bc657507f000000000000000000000000000000000000000000000000000000000000000046145b15610bf057507f000000000000000000000000000000000000000000000000000000000000000090565b6104e4604080517f8b73c3c69bb8fe3d512ecc4cf759cc79239f7b179b0ffacaa9a75d522b39400f60208201527f0000000000000000000000000000000000000000000000000000000000000000918101919091527f000000000000000000000000000000000000000000000000000000000000000060608201524660808201523060a082015260009060c00160405160208183030381529060405280519060200120905090565b600065ffffffffffff821115610cc6576030826040516306dfcc6560e41b815260040161052b929190611f79565b5090565b815460009081816005811115610d29576000610ce584611172565b610cef9085611fa2565b60008881526020902090915081015465ffffffffffff9081169087161015610d1957809150610d27565b610d24816001611fb5565b92505b505b6000610d378787858561125a565b90508015610d7257610d5c87610d4e600184611fa2565b600091825260209091200190565b54600160301b90046001600160d01b0316610d75565b60005b979650505050505050565b6001600160a01b038216610daa57600060405163ec442f0560e01b815260040161052b9190611c78565b6105a660008383611167565b6001600160a01b038216610de0576000604051634b637e8f60e11b815260040161052b9190611c78565b6105a682600083611167565b60006104e442610c98565b6000610e0283610620565b6001600160a01b0384811660008181526008602052604080822080546001600160a01b031916888616908117909155905194955093928516927f3134e8a2e6d97e929a7e54011ea5485d7d196dd5f0ba4d4ef95803e8e3fc257f9190a4610ab68183610e6d866112bc565b6112c7565b6001600160a01b0381166000908152600960205260408120546104b090611433565b33610e9d6106fc565b6001600160a01b031614610681573360405163118cdaa760e01b815260040161052b9190611c78565b600b80546001600160a01b038381166001600160a01b0319831681179093556040519116919082907f8be0079c531659141344cd1fd0a4f28419497f9722a3daafe3b4186f6b6457e090600090a35050565b60606104e47f0000000000000000000000000000000000000000000000000000000000000000600561145f565b60606104e47f0000000000000000000000000000000000000000000000000000000000000000600661145f565b80546000908015610fa257610f8c83610d4e600184611fa2565b54600160301b90046001600160d01b03166109e2565b60009392505050565b60006104b0610fb8610b6d565b8360405161190160f01b8152600281019290925260228201526042902090565b600080600080610fea8888888861150a565b925092509250610ffa82826115cf565b50909695505050505050565b600061101183611045565b9050808214610ab6576040516301d4b62360e61b81526001600160a01b03841660048201526024810182905260440161052b565b6001600160a01b0316600090815260076020526040902080546001810190915590565b611070611c08565b6001600160a01b03831660009081526009602052604090206109e29083611688565b6001600160a01b0384166110bc57600060405163e602df0560e01b815260040161052b9190611c78565b6001600160a01b0383166110e6576000604051634a1406b160e11b815260040161052b9190611c78565b6001600160a01b0380851660009081526001602090815260408083209387168352929052208290558015610b0857826001600160a01b0316846001600160a01b03167f8c5be1e5ebec7d5bd14f71427d1e84f3dd0314c0f7b2291e5b200ac8c7c3b9258460405161115991815260200190565b60405180910390a350505050565b610ab68383836116ec565b60008160000361118457506000919050565b60006001611191846116f7565b901c6001901b905060018184816111aa576111aa611fc8565b048201901c905060018184816111c2576111c2611fc8565b048201901c905060018184816111da576111da611fc8565b048201901c905060018184816111f2576111f2611fc8565b048201901c9050600181848161120a5761120a611fc8565b048201901c9050600181848161122257611222611fc8565b048201901c9050600181848161123a5761123a611fc8565b048201901c90506109e28182858161125457611254611fc8565b0461178b565b60005b818310156112b457600061127184846117a1565b60008781526020902090915065ffffffffffff86169082015465ffffffffffff1611156112a0578092506112ae565b6112ab816001611fb5565b93505b5061125d565b509392505050565b60006104b082610654565b816001600160a01b0316836001600160a01b0316141580156112e95750600081115b15610ab6576001600160a01b03831615611391576001600160a01b0383166000908152600960205260408120819061132c906117bc611327866117c8565b6117f7565b6001600160d01b031691506001600160d01b03169150846001600160a01b03167fdec2bacdd2f05b59de34da9b523dff8be42e5e38e818c82fdb0bae774387a7248383604051611386929190918252602082015260400190565b60405180910390a250505b6001600160a01b03821615610ab6576001600160a01b038216600090815260096020526040812081906113ca90611830611327866117c8565b6001600160d01b031691506001600160d01b03169150836001600160a01b03167fdec2bacdd2f05b59de34da9b523dff8be42e5e38e818c82fdb0bae774387a7248383604051611424929190918252602082015260400190565b60405180910390a25050505050565b600063ffffffff821115610cc6576020826040516306dfcc6560e41b815260040161052b929190611f79565b606060ff8314611479576114728361183c565b90506104b0565b81805461148590611f1e565b80601f01602080910402602001604051908101604052809291908181526020018280546114b190611f1e565b80156114fe5780601f106114d3576101008083540402835291602001916114fe565b820191906000526020600020905b8154815290600101906020018083116114e157829003601f168201915b505050505090506104b0565b600080806fa2a8918ca85bafe22016d0b997e4df60600160ff1b0384111561153b57506000915060039050826115c5565b604080516000808252602082018084528a905260ff891692820192909252606081018790526080810186905260019060a0016020604051602081039080840390855afa15801561158f573d6000803e3d6000fd5b5050604051601f1901519150506001600160a01b0381166115bb575060009250600191508290506115c5565b9250600091508190505b9450945094915050565b60008260038111156115e3576115e3611fde565b036115ec575050565b600182600381111561160057611600611fde565b0361161e5760405163f645eedf60e01b815260040160405180910390fd5b600282600381111561163257611632611fde565b036116535760405163fce698f760e01b81526004810182905260240161052b565b600382600381111561166757611667611fde565b036105a6576040516335e2f38360e21b81526004810182905260240161052b565b611690611c08565b826000018263ffffffff16815481106116ab576116ab611ff4565b60009182526020918290206040805180820190915291015465ffffffffffff81168252600160301b90046001600160d01b0316918101919091529392505050565b610ab683838361187b565b600080608083901c1561170c57608092831c92015b604083901c1561171e57604092831c92015b602083901c1561173057602092831c92015b601083901c1561174257601092831c92015b600883901c1561175457600892831c92015b600483901c1561176657600492831c92015b600283901c1561177857600292831c92015b600183901c156104b05760010192915050565b600081831061179a57816109e2565b5090919050565b60006117b0600284841861200a565b6109e290848416611fb5565b60006109e2828461202c565b60006001600160d01b03821115610cc65760d0826040516306dfcc6560e41b815260040161052b929190611f79565b600080611823611805610775565b61181b61181188610f72565b868863ffffffff16565b8791906118e2565b915091505b935093915050565b60006109e28284612053565b60606000611849836118f0565b604080516020808252818301909252919250600091906020820181803683375050509182525060208101929092525090565b611886838383611918565b6001600160a01b0383166118d757600061189f60025490565b90506001600160d01b03808211156118d457604051630e58ae9360e11b8152600481018390526024810182905260440161052b565b50505b610ab6838383611a2f565b600080611823858585611a8e565b600060ff8216601f8111156104b057604051632cd44ac360e21b815260040160405180910390fd5b6001600160a01b0383166119435780600260008282546119389190611fb5565b909155506119a29050565b6001600160a01b038316600090815260208190526040902054818110156119835783818360405163391434e360e21b815260040161052b93929190611f58565b6001600160a01b03841660009081526020819052604090209082900390555b6001600160a01b0382166119be576002805482900390556119dd565b6001600160a01b03821660009081526020819052604090208054820190555b816001600160a01b0316836001600160a01b03167fddf252ad1be2c89b69c2b068fc378daa952ba7f163c4a11628f55a4df523b3ef83604051611a2291815260200190565b60405180910390a3505050565b6001600160a01b038316611a5157611a4e600a611830611327846117c8565b50505b6001600160a01b038216611a7357611a70600a6117bc611327846117c8565b50505b610ab6611a7f84610620565b611a8884610620565b836112c7565b825460009081908015611bad576000611aac87610d4e600185611fa2565b60408051808201909152905465ffffffffffff808216808452600160301b9092046001600160d01b031660208401529192509087161015611b0057604051632520601d60e01b815260040160405180910390fd5b805165ffffffffffff808816911603611b4c5784611b2388610d4e600186611fa2565b80546001600160d01b0392909216600160301b0265ffffffffffff909216919091179055611b9d565b6040805180820190915265ffffffffffff80881682526001600160d01b0380881660208085019182528b54600181018d5560008d81529190912094519151909216600160301b029216919091179101555b6020015192508391506118289050565b50506040805180820190915265ffffffffffff80851682526001600160d01b0380851660208085019182528854600181018a5560008a815291822095519251909316600160301b029190931617920191909155905081611828565b604080518082019091526000808252602082015290565b6000815180845260005b81811015611c4557602081850181015186830182015201611c29565b506000602082860101526020601f19601f83011685010191505092915050565b6020815260006109e26020830184611c1f565b6001600160a01b0391909116815260200190565b80356001600160a01b0381168114611ca357600080fd5b919050565b60008060408385031215611cbb57600080fd5b611cc483611c8c565b946020939093013593505050565b600080600060608486031215611ce757600080fd5b611cf084611c8c565b9250611cfe60208501611c8c565b9150604084013590509250925092565b600060208284031215611d2057600080fd5b5035919050565b600060208284031215611d3957600080fd5b6109e282611c8c565b60ff60f81b881681526000602060e081840152611d6260e084018a611c1f565b8381036040850152611d74818a611c1f565b606085018990526001600160a01b038816608086015260a0850187905284810360c0860152855180825283870192509083019060005b81811015611dc657835183529284019291840191600101611daa565b50909c9b505050505050505050505050565b803560ff81168114611ca357600080fd5b60008060008060008060c08789031215611e0257600080fd5b611e0b87611c8c565b95506020870135945060408701359350611e2760608801611dd8565b92506080870135915060a087013590509295509295509295565b600080600080600080600060e0888a031215611e5c57600080fd5b611e6588611c8c565b9650611e7360208901611c8c565b95506040880135945060608801359350611e8f60808901611dd8565b925060a0880135915060c0880135905092959891949750929550565b60008060408385031215611ebe57600080fd5b611ec783611c8c565b9150611ed560208401611c8c565b90509250929050565b60008060408385031215611ef157600080fd5b611efa83611c8c565b9150602083013563ffffffff81168114611f1357600080fd5b809150509250929050565b600181811c90821680611f3257607f821691505b602082108103611f5257634e487b7160e01b600052602260045260246000fd5b50919050565b6001600160a01b039390931683526020830191909152604082015260600190565b60ff929092168252602082015260400190565b634e487b7160e01b600052601160045260246000fd5b818103818111156104b0576104b0611f8c565b808201808211156104b0576104b0611f8c565b634e487b7160e01b600052601260045260246000fd5b634e487b7160e01b600052602160045260246000fd5b634e487b7160e01b600052603260045260246000fd5b60008261202757634e487b7160e01b600052601260045260246000fd5b500490565b6001600160d01b0382811682821603908082111561204c5761204c611f8c565b5092915050565b6001600160d01b0381811683821601908082111561204c5761204c611f8c56fea2646970667358221220e3693fb5da9f62e2bd16ddde5579155c2f9af69fd4459574f4cd3428ea5a127964736f6c63430008150033",
    "linkReferences": {}
  },
  "methodIdentifiers": {
    "CLOCK_MODE()": "4bf5d7e9",
    "DOMAIN_SEPARATOR()": "3644e515",
    "allowance(address,address)": "dd62ed3e",
    "approve(address,uint256)": "095ea7b3",
    "balanceOf(address)": "70a08231",
    "burn(uint256)": "42966c68",
    "burnFrom(address,uint256)": "79cc6790",
    "checkpoints(address,uint32)": "f1127ed8",
    "clock()": "91ddadf4",
    "decimals()": "313ce567",
    "delegate(address)": "5c19a95c",
    "delegateBySig(address,uint256,uint256,uint8,bytes32,bytes32)": "c3cda520",
    "delegates(address)": "587cde1e",
    "eip712Domain()": "84b0196e",
    "getPastTotalSupply(uint256)": "8e539e8c",
    "getPastVotes(address,uint256)": "3a46b1a8",
    "getVotes(address)": "9ab24eb0",
    "mint(address,uint256)": "40c10f19",
    "minter()": "07546172",
    "name()": "06fdde03",
    "nonces(address)": "7ecebe00",
    "numCheckpoints(address)": "6fcfff45",
    "owner()": "8da5cb5b",
    "permit(address,address,uint256,uint256,uint8,bytes32,bytes32)": "d505accf",
    "renounceOwnership()": "715018a6",
    "setMinter(address)": "fca3b5aa",
    "symbol()": "95d89b41",
    "totalSupply()": "18160ddd",
    "transfer(address,uint256)": "a9059cbb",
    "transferFrom(address,address,uint256)": "23b872dd",
    "transferOwnership(address)": "f2fde38b"
  },
  "id": 50
}