{
  "abi": [
    {
      "type": "constructor",
      "inputs": [
        {
          "name": "initialOwner",
          "type": "address",
          "internalType": "address"
        },
        {
          "name": "_operatorMinter",
          "type": "address",
          "internalType": "address"
        },
        {
          "name": "_operatorOwner",
          "type": "address",
          "internalType": "address"
        },
        {
          "name": "chainIds",
          "type": "uint256[]",
          "internalType": "uint256[]"
        },
        {
          "name": "prices",
          "type": "uint256[]",
          "internalType": "uint256[]"
        },
        {
          "name": "_minFee",
          "type": "uint256",
          "internalType": "uint256"
        },
        {
          "name": "_tokenDeployer",
          "type": "address",
          "internalType": "address"
        }
      ],
      "stateMutability": "nonpayable"
    },
    {
      "type": "function",
      "name": "availableSupply",
      "inputs": [],
      "outputs": [
        {
          "name": "",
          "type": "uint256",
          "internalType": "uint256"
        }
      ],
      "stateMutability": "view"
    },
    {
      "type": "function",
      "name": "chainPrices",
      "inputs": [
        {
          "name": "",
          "type": "uint256",
          "internalType": "uint256"
        }
      ],
      "outputs": [
        {
          "name": "",
          "type": "uint256",
          "internalType": "uint256"
        }
      ],
      "stateMutability": "view"
    },
    {
      "type": "function",
      "name": "createPeerToken",
      "inputs": [
        {
          "name": "name",
          "type": "string",
          "internalType": "string"
        },
        {
          "name": "symbol",
          "type": "string",
          "internalType": "string"
        },
        {
          "name": "parentChain",
          "type": "uint256",
          "internalType": "uint256"
        },
        {
          "name": "parentToken",
          "type": "address",
          "internalType": "address"
        }
      ],
      "outputs": [
        {
          "name": "",
          "type": "address",
          "internalType": "address"
        }
      ],
      "stateMutability": "nonpayable"
    },
    {
      "type": "function",
      "name": "createPumpOutToken",
      "inputs": [
        {
          "name": "name",
          "type": "string",
          "internalType": "string"
        },
        {
          "name": "symbol",
          "type": "string",
          "internalType": "string"
        },
        {
          "name": "chainIds",
          "type": "uint256[]",
          "internalType": "uint256[]"
        }
      ],
      "outputs": [
        {
          "name": "",
          "type": "address",
          "internalType": "address"
        }
      ],
      "stateMutability": "payable"
    },
    {
      "type": "function",
      "name": "getRequiredAmount",
      "inputs": [
        {
          "name": "chainIds",
          "type": "uint256[]",
          "internalType": "uint256[]"
        }
      ],
      "outputs": [
        {
          "name": "totalAmount",
          "type": "uint256",
          "internalType": "uint256"
        }
      ],
      "stateMutability": "view"
    },
    {
      "type": "function",
      "name": "kValue",
      "inputs": [],
      "outputs": [
        {
          "name": "",
          "type": "uint256",
          "internalType": "uint256"
        }
      ],
      "stateMutability": "view"
    },
    {
      "type": "function",
      "name": "lpSupply",
      "inputs": [],
      "outputs": [
        {
          "name": "",
          "type": "uint256",
          "internalType": "uint256"
        }
      ],
      "stateMutability": "view"
    },
    {
      "type": "function",
      "name": "minFee",
      "inputs": [],
      "outputs": [
        {
          "name": "",
          "type": "uint256",
          "internalType": "uint256"
        }
      ],
      "stateMutability": "view"
    },
    {
      "type": "function",
      "name": "operatorMinter",
      "inputs": [],
      "outputs": [
        {
          "name": "",
          "type": "address",
          "internalType": "address"
        }
      ],
      "stateMutability": "view"
    },
    {
      "type": "function",
      "name": "operatorOwner",
      "inputs": [],
      "outputs": [
        {
          "name": "",
          "type": "address",
          "internalType": "address"
        }
      ],
      "stateMutability": "view"
    },
    {
      "type": "function",
      "name": "owner",
      "inputs": [],
      "outputs": [
        {
          "name": "",
          "type": "address",
          "internalType": "address"
        }
      ],
      "stateMutability": "view"
    },
    {
      "type": "function",
      "name": "protocolFeeCollector",
      "inputs": [],
      "outputs": [
        {
          "name": "",
          "type": "address",
          "internalType": "address"
        }
      ],
      "stateMutability": "view"
    },
    {
      "type": "function",
      "name": "protocolFeePercentage",
      "inputs": [],
      "outputs": [
        {
          "name": "",
          "type": "uint256",
          "internalType": "uint256"
        }
      ],
      "stateMutability": "view"
    },
    {
      "type": "function",
      "name": "renounceOwnership",
      "inputs": [],
      "outputs": [],
      "stateMutability": "nonpayable"
    },
    {
      "type": "function",
      "name": "setAvailableSupply",
      "inputs": [
        {
          "name": "_availableSupply",
          "type": "uint256",
          "internalType": "uint256"
        }
      ],
      "outputs": [],
      "stateMutability": "nonpayable"
    },
    {
      "type": "function",
      "name": "setChainPrice",
      "inputs": [
        {
          "name": "chainId",
          "type": "uint256",
          "internalType": "uint256"
        },
        {
          "name": "price",
          "type": "uint256",
          "internalType": "uint256"
        }
      ],
      "outputs": [],
      "stateMutability": "nonpayable"
    },
    {
      "type": "function",
      "name": "setKValue",
      "inputs": [
        {
          "name": "_kValue",
          "type": "uint256",
          "internalType": "uint256"
        }
      ],
      "outputs": [],
      "stateMutability": "nonpayable"
    },
    {
      "type": "function",
      "name": "setLpSupply",
      "inputs": [
        {
          "name": "_lpSupply",
          "type": "uint256",
          "internalType": "uint256"
        }
      ],
      "outputs": [],
      "stateMutability": "nonpayable"
    },
    {
      "type": "function",
      "name": "setMinFee",
      "inputs": [
        {
          "name": "_minFee",
          "type": "uint256",
          "internalType": "uint256"
        }
      ],
      "outputs": [],
      "stateMutability": "nonpayable"
    },
    {
      "type": "function",
      "name": "setOperatorMinter",
      "inputs": [
        {
          "name": "_operatorMinter",
          "type": "address",
          "internalType": "address"
        }
      ],
      "outputs": [],
      "stateMutability": "nonpayable"
    },
    {
      "type": "function",
      "name": "setOperatorOwner",
      "inputs": [
        {
          "name": "_operatorOwner",
          "type": "address",
          "internalType": "address"
        }
      ],
      "outputs": [],
      "stateMutability": "nonpayable"
    },
    {
      "type": "function",
      "name": "setProtocolFeeCollector",
      "inputs": [
        {
          "name": "_protocolFeeCollector",
          "type": "address",
          "internalType": "address"
        }
      ],
      "outputs": [],
      "stateMutability": "nonpayable"
    },
    {
      "type": "function",
      "name": "setProtocolFeePercentage",
      "inputs": [
        {
          "name": "_protocolFeePercentage",
          "type": "uint256",
          "internalType": "uint256"
        }
      ],
      "outputs": [],
      "stateMutability": "nonpayable"
    },
    {
      "type": "function",
      "name": "tokenDeployer",
      "inputs": [],
      "outputs": [
        {
          "name": "",
          "type": "address",
          "internalType": "contract TokenDeployer"
        }
      ],
      "stateMutability": "view"
    },
    {
      "type": "function",
      "name": "transferOwnership",
      "inputs": [
        {
          "name": "newOwner",
          "type": "address",
          "internalType": "address"
        }
      ],
      "outputs": [],
      "stateMutability": "nonpayable"
    },
    {
      "type": "function",
      "name": "withdrawEarnings",
      "inputs": [],
      "outputs": [],
      "stateMutability": "nonpayable"
    },
    {
      "type": "event",
      "name": "OwnershipTransferred",
      "inputs": [
        {
          "name": "previousOwner",
          "type": "address",
          "indexed": true,
          "internalType": "address"
        },
        {
          "name": "newOwner",
          "type": "address",
          "indexed": true,
          "internalType": "address"
        }
      ],
      "anonymous": false
    },
    {
      "type": "event",
      "name": "PeerTokenCreated",
      "inputs": [
        {
          "name": "tokenAddress",
          "type": "address",
          "indexed": true,
          "internalType": "address"
        },
        {
          "name": "name",
          "type": "string",
          "indexed": false,
          "internalType": "string"
        },
        {
          "name": "symbol",
          "type": "string",
          "indexed": false,
          "internalType": "string"
        },
        {
          "name": "minter",
          "type": "address",
          "indexed": false,
          "internalType": "address"
        },
        {
          "name": "parentChain",
          "type": "uint256",
          "indexed": false,
          "internalType": "uint256"
        },
        {
          "name": "parentToken",
          "type": "address",
          "indexed": false,
          "internalType": "address"
        }
      ],
      "anonymous": false
    },
    {
      "type": "event",
      "name": "PumpOutTokenCreated",
      "inputs": [
        {
          "name": "tokenAddress",
          "type": "address",
          "indexed": true,
          "internalType": "address"
        },
        {
          "name": "name",
          "type": "string",
          "indexed": false,
          "internalType": "string"
        },
        {
          "name": "symbol",
          "type": "string",
          "indexed": false,
          "internalType": "string"
        },
        {
          "name": "minter",
          "type": "address",
          "indexed": false,
          "internalType": "address"
        },
        {
          "name": "availableSupply",
          "type": "uint256",
          "indexed": false,
          "internalType": "uint256"
        },
        {
          "name": "lpSupply",
          "type": "uint256",
          "indexed": false,
          "internalType": "uint256"
        },
        {
          "name": "k",
          "type": "uint256",
          "indexed": false,
          "internalType": "uint256"
        },
        {
          "name": "protocolFeePercentage",
          "type": "uint256",
          "indexed": false,
          "internalType": "uint256"
        },
        {
          "name": "protocolFeeCollector",
          "type": "address",
          "indexed": false,
          "internalType": "address"
        },
        {
          "name": "chainIds",
          "type": "uint256[]",
          "indexed": false,
          "internalType": "uint256[]"
        }
      ],
      "anonymous": false
    },
    {
      "type": "error",
      "name": "InsufficientPayment",
      "inputs": []
    },
    {
      "type": "error",
      "name": "OwnableInvalidOwner",
      "inputs": [
        {
          "name": "owner",
          "type": "address",
          "internalType": "address"
        }
      ]
    },
    {
      "type": "error",
      "name": "OwnableUnauthorizedAccount",
      "inputs": [
        {
          "name": "account",
          "type": "address",
          "internalType": "address"
        }
      ]
    },
    {
      "type": "error",
      "name": "UnsuportedChain",
      "inputs": []
    }
  ],
  "bytecode": {
    "object": "0x6080604052632faf0800600655630bebc20060075562010d8860085560646009553480156200002d57600080fd5b5060405162001367380380620013678339810160408190526200005091620002e1565b866001600160a01b0381166200008157604051631e4fbdf760e01b8152600060048201526024015b60405180910390fd5b6200008c81620001ba565b50600480546001600160a01b038089166001600160a01b03199283161790925560058054888416908316179055600a80548a841690831617905560018054928416929091169190911790558251845114620001365760405162461bcd60e51b8152602060048201526024808201527f436861696e2049447320616e6420707269636573206c656e677468206d69736d6044820152630c2e8c6d60e31b606482015260840162000078565b60005b8451811015620001a957838181518110620001585762000158620003a0565b602002602001015160026000878481518110620001795762000179620003a0565b60200260200101518152602001908152602001600020819055508080620001a090620003b6565b91505062000139565b505060035550620003de9350505050565b600080546001600160a01b038381166001600160a01b0319831681178455604051919092169283917f8be0079c531659141344cd1fd0a4f28419497f9722a3daafe3b4186f6b6457e09190a35050565b80516001600160a01b03811681146200022257600080fd5b919050565b634e487b7160e01b600052604160045260246000fd5b600082601f8301126200024f57600080fd5b815160206001600160401b03808311156200026e576200026e62000227565b8260051b604051601f19603f8301168101818110848211171562000296576200029662000227565b604052938452858101830193838101925087851115620002b557600080fd5b83870191505b84821015620002d657815183529183019190830190620002bb565b979650505050505050565b600080600080600080600060e0888a031215620002fd57600080fd5b62000308886200020a565b965062000318602089016200020a565b955062000328604089016200020a565b60608901519095506001600160401b03808211156200034657600080fd5b620003548b838c016200023d565b955060808a01519150808211156200036b57600080fd5b506200037a8a828b016200023d565b93505060a088015191506200039260c089016200020a565b905092959891949750929550565b634e487b7160e01b600052603260045260246000fd5b600060018201620003d757634e487b7160e01b600052601160045260246000fd5b5060010190565b610f7980620003ee6000396000f3fe6080604052600436106101305760003560e01c80626ddc21146101355780630cc893e21461015757806315cb52071461018d5780631723934d146101bb57806324ec7590146101db5780632a2dae0a146101f157806331ac9920146102115780633b22fc03146102315780633faad9a4146102475780634efd954d14610267578063715018a6146102875780637ecc2b561461029c578063850a1501146102b25780638d8e97a7146102d25780638da5cb5b146102f25780638e50e50914610307578063a0c1f7941461031d578063b73c6ce91461033d578063b800919e14610352578063c2314d1014610372578063cfca314714610385578063d8a5e936146103a5578063dc0e7175146103c5578063e6bb2eb1146103db578063ec56480414610408578063f2fde38b14610428575b600080fd5b34801561014157600080fd5b506101556101503660046109d2565b610448565b005b34801561016357600080fd5b50600554610177906001600160a01b031681565b60405161018491906109eb565b60405180910390f35b34801561019957600080fd5b506101ad6101a8366004610ac4565b610455565b604051908152602001610184565b3480156101c757600080fd5b506101556101d63660046109d2565b610503565b3480156101e757600080fd5b506101ad60035481565b3480156101fd57600080fd5b50600154610177906001600160a01b031681565b34801561021d57600080fd5b5061015561022c3660046109d2565b610510565b34801561023d57600080fd5b506101ad60075481565b34801561025357600080fd5b50610155610262366004610b00565b61051d565b34801561027357600080fd5b506101556102823660046109d2565b610537565b34801561029357600080fd5b50610155610544565b3480156102a857600080fd5b506101ad60065481565b3480156102be57600080fd5b50600a54610177906001600160a01b031681565b3480156102de57600080fd5b506101776102ed366004610ba6565b610558565b3480156102fe57600080fd5b50610177610644565b34801561031357600080fd5b506101ad60095481565b34801561032957600080fd5b50610155610338366004610c25565b610653565b34801561034957600080fd5b5061015561067d565b34801561035e57600080fd5b5061015561036d366004610c25565b61072b565b610177610380366004610c49565b610755565b34801561039157600080fd5b506101556103a0366004610c25565b6108de565b3480156103b157600080fd5b506101556103c03660046109d2565b610908565b3480156103d157600080fd5b506101ad60085481565b3480156103e757600080fd5b506101ad6103f63660046109d2565b60026020526000908152604090205481565b34801561041457600080fd5b50600454610177906001600160a01b031681565b34801561043457600080fd5b50610155610443366004610c25565b610915565b610450610950565b600855565b60035460005b82518110156104fd576002600084838151811061047a5761047a610cd0565b60200260200101518152602001908152602001600020546000036104b157604051630139dc8760e01b815260040160405180910390fd5b600260008483815181106104c7576104c7610cd0565b6020026020010151815260200190815260200160002054826104e99190610cfc565b9150806104f581610d15565b91505061045b565b50919050565b61050b610950565b600655565b610518610950565b600355565b610525610950565b60009182526002602052604090912055565b61053f610950565b600755565b61054c610950565b6105566000610982565b565b6000610562610950565b600154600480546005546040516271974b60e21b81526000946001600160a01b03908116946301c65d2c946105a4948d948d9492831693919092169101610d74565b6020604051808303816000875af11580156105c3573d6000803e3d6000fd5b505050506040513d601f19601f820116820180604052508101906105e79190610dbe565b6004546040519192506001600160a01b03808416927f4aa96cf69e08cefc0c4f02b77a2e479744c0ab9e6b016be4ae5d312909982c9292610633928b928b92909116908a908a90610ddb565b60405180910390a295945050505050565b6000546001600160a01b031690565b61065b610950565b600480546001600160a01b0319166001600160a01b0392909216919091179055565b610685610950565b600061068f610644565b6001600160a01b03164760405160006040518083038185875af1925050503d80600081146106d9576040519150601f19603f3d011682016040523d82523d6000602084013e6106de565b606091505b50509050806107285760405162461bcd60e51b815260206004820152601160248201527015da5d1a191c985dd85b0819985a5b1959607a1b60448201526064015b60405180910390fd5b50565b610733610950565b600580546001600160a01b0319166001600160a01b0392909216919091179055565b60008061076183610455565b9050803410156107845760405163cd1c886760e01b815260040160405180910390fd5b6000600160009054906101000a90046001600160a01b03166001600160a01b031663c35925748787600460009054906101000a90046001600160a01b0316600560009054906101000a90046001600160a01b0316600654600754600854600954600a60009054906101000a90046001600160a01b03166040518a63ffffffff1660e01b815260040161081e99989796959493929190610e2b565b6020604051808303816000875af115801561083d573d6000803e3d6000fd5b505050506040513d601f19601f820116820180604052508101906108619190610dbe565b9050806001600160a01b03167f6840f000b8922f926d40d5f7daf98a47cb48255cf54c94d586c1be77bf8b15178787600460009054906101000a90046001600160a01b0316600654600754600854600954600a60009054906101000a90046001600160a01b03168d60405161063399989796959493929190610e9d565b6108e6610950565b600a80546001600160a01b0319166001600160a01b0392909216919091179055565b610910610950565b600955565b61091d610950565b6001600160a01b038116610947576000604051631e4fbdf760e01b815260040161071f91906109eb565b61072881610982565b33610959610644565b6001600160a01b031614610556573360405163118cdaa760e01b815260040161071f91906109eb565b600080546001600160a01b038381166001600160a01b0319831681178455604051919092169283917f8be0079c531659141344cd1fd0a4f28419497f9722a3daafe3b4186f6b6457e09190a35050565b6000602082840312156109e457600080fd5b5035919050565b6001600160a01b0391909116815260200190565b634e487b7160e01b600052604160045260246000fd5b604051601f8201601f191681016001600160401b0381118282101715610a3d57610a3d6109ff565b604052919050565b600082601f830112610a5657600080fd5b813560206001600160401b03821115610a7157610a716109ff565b8160051b610a80828201610a15565b9283528481018201928281019087851115610a9a57600080fd5b83870192505b84831015610ab957823582529183019190830190610aa0565b979650505050505050565b600060208284031215610ad657600080fd5b81356001600160401b03811115610aec57600080fd5b610af884828501610a45565b949350505050565b60008060408385031215610b1357600080fd5b50508035926020909101359150565b600082601f830112610b3357600080fd5b81356001600160401b03811115610b4c57610b4c6109ff565b610b5f601f8201601f1916602001610a15565b818152846020838601011115610b7457600080fd5b816020850160208301376000918101602001919091529392505050565b6001600160a01b038116811461072857600080fd5b60008060008060808587031215610bbc57600080fd5b84356001600160401b0380821115610bd357600080fd5b610bdf88838901610b22565b95506020870135915080821115610bf557600080fd5b50610c0287828801610b22565b935050604085013591506060850135610c1a81610b91565b939692955090935050565b600060208284031215610c3757600080fd5b8135610c4281610b91565b9392505050565b600080600060608486031215610c5e57600080fd5b83356001600160401b0380821115610c7557600080fd5b610c8187838801610b22565b94506020860135915080821115610c9757600080fd5b610ca387838801610b22565b93506040860135915080821115610cb957600080fd5b50610cc686828701610a45565b9150509250925092565b634e487b7160e01b600052603260045260246000fd5b634e487b7160e01b600052601160045260246000fd5b80820180821115610d0f57610d0f610ce6565b92915050565b600060018201610d2757610d27610ce6565b5060010190565b6000815180845260005b81811015610d5457602081850181015186830182015201610d38565b506000602082860101526020601f19601f83011685010191505092915050565b608081526000610d876080830187610d2e565b8281036020840152610d998187610d2e565b6001600160a01b03958616604085015293909416606090920191909152509392505050565b600060208284031215610dd057600080fd5b8151610c4281610b91565b60a081526000610dee60a0830188610d2e565b8281036020840152610e008188610d2e565b6001600160a01b03968716604085015260608401959095525050921660809092019190915292915050565b6000610120808352610e3f8184018d610d2e565b90508281036020840152610e53818c610d2e565b6001600160a01b039a8b166040850152988a1660608401525050608081019590955260a085019390935260c084019190915260e08301529092166101009092019190915292915050565b6000610120808352610eb18184018d610d2e565b9050602083820381850152610ec6828d610d2e565b6001600160a01b038c81166040870152606086018c9052608086018b905260a086018a905260c08601899052871660e0860152848103610100860152855180825282870193509082019060005b81811015610f2f57845183529383019391830191600101610f13565b50909e9d505050505050505050505050505056fea26469706673582212205f9f2ca636b47fe748cfa05a3625b2b77d547a525693d7839432b8439f75ef1364736f6c63430008150033",
    "linkReferences": {}
  },
  "methodIdentifiers": {
    "availableSupply()": "7ecc2b56",
    "chainPrices(uint256)": "e6bb2eb1",
    "createPeerToken(string,string,uint256,address)": "8d8e97a7",
    "createPumpOutToken(string,string,uint256[])": "c2314d10",
    "getRequiredAmount(uint256[])": "15cb5207",
    "kValue()": "dc0e7175",
    "lpSupply()": "3b22fc03",
    "minFee()": "24ec7590",
    "operatorMinter()": "ec564804",
    "operatorOwner()": "0cc893e2",
    "owner()": "8da5cb5b",
    "protocolFeeCollector()": "850a1501",
    "protocolFeePercentage()": "8e50e509",
    "renounceOwnership()": "715018a6",
    "setAvailableSupply(uint256)": "1723934d",
    "setChainPrice(uint256,uint256)": "3faad9a4",
    "setKValue(uint256)": "006ddc21",
    "setLpSupply(uint256)": "4efd954d",
    "setMinFee(uint256)": "31ac9920",
    "setOperatorMinter(address)": "a0c1f794",
    "setOperatorOwner(address)": "b800919e",
    "setProtocolFeeCollector(address)": "cfca3147",
    "setProtocolFeePercentage(uint256)": "d8a5e936",
    "tokenDeployer()": "2a2dae0a",
    "transferOwnership(address)": "f2fde38b",
    "withdrawEarnings()": "b73c6ce9"
  },
  "id": 51
}