{
    "abi": [
        {
            "type": "constructor",
            "inputs": [
                {
                    "name": "_name",
                    "type": "string",
                    "internalType": "string"
                },
                {
                    "name": "_symbol",
                    "type": "string",
                    "internalType": "string"
                },
                {
                    "name": "_minter",
                    "type": "address",
                    "internalType": "address"
                },
                {
                    "name": "_owner",
                    "type": "address",
                    "internalType": "address"
                },
                {
                    "name": "_availableSupply",
                    "type": "uint256",
                    "internalType": "uint256"
                },
                {
                    "name": "_lpSupply",
                    "type": "uint256",
                    "internalType": "uint256"
                },
                {
                    "name": "_k",
                    "type": "uint256",
                    "internalType": "uint256"
                },
                {
                    "name": "_protocolFeePercentage",
                    "type": "uint256",
                    "internalType": "uint256"
                },
                {
                    "name": "_protocolFeeCollector",
                    "type": "address",
                    "internalType": "address"
                }
            ],
            "stateMutability": "nonpayable"
        },
        {
            "type": "fallback",
            "stateMutability": "payable"
        },
        {
            "type": "receive",
            "stateMutability": "payable"
        },
        {
            "type": "function",
            "name": "CLOCK_MODE",
            "inputs": [],
            "outputs": [
                {
                    "name": "",
                    "type": "string",
                    "internalType": "string"
                }
            ],
            "stateMutability": "view"
        },
        {
            "type": "function",
            "name": "DOMAIN_SEPARATOR",
            "inputs": [],
            "outputs": [
                {
                    "name": "",
                    "type": "bytes32",
                    "internalType": "bytes32"
                }
            ],
            "stateMutability": "view"
        },
        {
            "type": "function",
            "name": "LP_SUPPLY",
            "inputs": [],
            "outputs": [
                {
                    "name": "",
                    "type": "uint256",
                    "internalType": "uint256"
                }
            ],
            "stateMutability": "view"
        },
        {
            "type": "function",
            "name": "MAX_SUPPLY",
            "inputs": [],
            "outputs": [
                {
                    "name": "",
                    "type": "uint256",
                    "internalType": "uint256"
                }
            ],
            "stateMutability": "view"
        },
        {
            "type": "function",
            "name": "TOKENS_FOR_SALE",
            "inputs": [],
            "outputs": [
                {
                    "name": "",
                    "type": "uint256",
                    "internalType": "uint256"
                }
            ],
            "stateMutability": "view"
        },
        {
            "type": "function",
            "name": "allowance",
            "inputs": [
                {
                    "name": "owner",
                    "type": "address",
                    "internalType": "address"
                },
                {
                    "name": "spender",
                    "type": "address",
                    "internalType": "address"
                }
            ],
            "outputs": [
                {
                    "name": "",
                    "type": "uint256",
                    "internalType": "uint256"
                }
            ],
            "stateMutability": "view"
        },
        {
            "type": "function",
            "name": "approve",
            "inputs": [
                {
                    "name": "spender",
                    "type": "address",
                    "internalType": "address"
                },
                {
                    "name": "value",
                    "type": "uint256",
                    "internalType": "uint256"
                }
            ],
            "outputs": [
                {
                    "name": "",
                    "type": "bool",
                    "internalType": "bool"
                }
            ],
            "stateMutability": "nonpayable"
        },
        {
            "type": "function",
            "name": "balanceOf",
            "inputs": [
                {
                    "name": "account",
                    "type": "address",
                    "internalType": "address"
                }
            ],
            "outputs": [
                {
                    "name": "",
                    "type": "uint256",
                    "internalType": "uint256"
                }
            ],
            "stateMutability": "view"
        },
        {
            "type": "function",
            "name": "burn",
            "inputs": [
                {
                    "name": "value",
                    "type": "uint256",
                    "internalType": "uint256"
                }
            ],
            "outputs": [],
            "stateMutability": "nonpayable"
        },
        {
            "type": "function",
            "name": "burnFrom",
            "inputs": [
                {
                    "name": "account",
                    "type": "address",
                    "internalType": "address"
                },
                {
                    "name": "value",
                    "type": "uint256",
                    "internalType": "uint256"
                }
            ],
            "outputs": [],
            "stateMutability": "nonpayable"
        },
        {
            "type": "function",
            "name": "buy",
            "inputs": [
                {
                    "name": "minTokens",
                    "type": "uint256",
                    "internalType": "uint256"
                }
            ],
            "outputs": [],
            "stateMutability": "payable"
        },
        {
            "type": "function",
            "name": "checkpoints",
            "inputs": [
                {
                    "name": "account",
                    "type": "address",
                    "internalType": "address"
                },
                {
                    "name": "pos",
                    "type": "uint32",
                    "internalType": "uint32"
                }
            ],
            "outputs": [
                {
                    "name": "",
                    "type": "tuple",
                    "internalType": "struct Checkpoints.Checkpoint208",
                    "components": [
                        {
                            "name": "_key",
                            "type": "uint48",
                            "internalType": "uint48"
                        },
                        {
                            "name": "_value",
                            "type": "uint208",
                            "internalType": "uint208"
                        }
                    ]
                }
            ],
            "stateMutability": "view"
        },
        {
            "type": "function",
            "name": "clock",
            "inputs": [],
            "outputs": [
                {
                    "name": "",
                    "type": "uint48",
                    "internalType": "uint48"
                }
            ],
            "stateMutability": "view"
        },
        {
            "type": "function",
            "name": "decimals",
            "inputs": [],
            "outputs": [
                {
                    "name": "",
                    "type": "uint8",
                    "internalType": "uint8"
                }
            ],
            "stateMutability": "view"
        },
        {
            "type": "function",
            "name": "delegate",
            "inputs": [
                {
                    "name": "delegatee",
                    "type": "address",
                    "internalType": "address"
                }
            ],
            "outputs": [],
            "stateMutability": "nonpayable"
        },
        {
            "type": "function",
            "name": "delegateBySig",
            "inputs": [
                {
                    "name": "delegatee",
                    "type": "address",
                    "internalType": "address"
                },
                {
                    "name": "nonce",
                    "type": "uint256",
                    "internalType": "uint256"
                },
                {
                    "name": "expiry",
                    "type": "uint256",
                    "internalType": "uint256"
                },
                {
                    "name": "v",
                    "type": "uint8",
                    "internalType": "uint8"
                },
                {
                    "name": "r",
                    "type": "bytes32",
                    "internalType": "bytes32"
                },
                {
                    "name": "s",
                    "type": "bytes32",
                    "internalType": "bytes32"
                }
            ],
            "outputs": [],
            "stateMutability": "nonpayable"
        },
        {
            "type": "function",
            "name": "delegates",
            "inputs": [
                {
                    "name": "account",
                    "type": "address",
                    "internalType": "address"
                }
            ],
            "outputs": [
                {
                    "name": "",
                    "type": "address",
                    "internalType": "address"
                }
            ],
            "stateMutability": "view"
        },
        {
            "type": "function",
            "name": "eip712Domain",
            "inputs": [],
            "outputs": [
                {
                    "name": "fields",
                    "type": "bytes1",
                    "internalType": "bytes1"
                },
                {
                    "name": "name",
                    "type": "string",
                    "internalType": "string"
                },
                {
                    "name": "version",
                    "type": "string",
                    "internalType": "string"
                },
                {
                    "name": "chainId",
                    "type": "uint256",
                    "internalType": "uint256"
                },
                {
                    "name": "verifyingContract",
                    "type": "address",
                    "internalType": "address"
                },
                {
                    "name": "salt",
                    "type": "bytes32",
                    "internalType": "bytes32"
                },
                {
                    "name": "extensions",
                    "type": "uint256[]",
                    "internalType": "uint256[]"
                }
            ],
            "stateMutability": "view"
        },
        {
            "type": "function",
            "name": "estimateBuy",
            "inputs": [
                {
                    "name": "ethAmount",
                    "type": "uint256",
                    "internalType": "uint256"
                }
            ],
            "outputs": [
                {
                    "name": "tokensExpected",
                    "type": "uint256",
                    "internalType": "uint256"
                }
            ],
            "stateMutability": "view"
        },
        {
            "type": "function",
            "name": "estimateSell",
            "inputs": [
                {
                    "name": "tokensAmount",
                    "type": "uint256",
                    "internalType": "uint256"
                }
            ],
            "outputs": [
                {
                    "name": "ethExpected",
                    "type": "uint256",
                    "internalType": "uint256"
                }
            ],
            "stateMutability": "view"
        },
        {
            "type": "function",
            "name": "ethRequiredToBuyRemainingTokens",
            "inputs": [],
            "outputs": [
                {
                    "name": "ethRequired",
                    "type": "uint256",
                    "internalType": "uint256"
                }
            ],
            "stateMutability": "view"
        },
        {
            "type": "function",
            "name": "getPastTotalSupply",
            "inputs": [
                {
                    "name": "timepoint",
                    "type": "uint256",
                    "internalType": "uint256"
                }
            ],
            "outputs": [
                {
                    "name": "",
                    "type": "uint256",
                    "internalType": "uint256"
                }
            ],
            "stateMutability": "view"
        },
        {
            "type": "function",
            "name": "getPastVotes",
            "inputs": [
                {
                    "name": "account",
                    "type": "address",
                    "internalType": "address"
                },
                {
                    "name": "timepoint",
                    "type": "uint256",
                    "internalType": "uint256"
                }
            ],
            "outputs": [
                {
                    "name": "",
                    "type": "uint256",
                    "internalType": "uint256"
                }
            ],
            "stateMutability": "view"
        },
        {
            "type": "function",
            "name": "getVotes",
            "inputs": [
                {
                    "name": "account",
                    "type": "address",
                    "internalType": "address"
                }
            ],
            "outputs": [
                {
                    "name": "",
                    "type": "uint256",
                    "internalType": "uint256"
                }
            ],
            "stateMutability": "view"
        },
        {
            "type": "function",
            "name": "isCurveClosed",
            "inputs": [],
            "outputs": [
                {
                    "name": "",
                    "type": "bool",
                    "internalType": "bool"
                }
            ],
            "stateMutability": "view"
        },
        {
            "type": "function",
            "name": "k",
            "inputs": [],
            "outputs": [
                {
                    "name": "",
                    "type": "uint256",
                    "internalType": "uint256"
                }
            ],
            "stateMutability": "view"
        },
        {
            "type": "function",
            "name": "mint",
            "inputs": [
                {
                    "name": "_account",
                    "type": "address",
                    "internalType": "address"
                },
                {
                    "name": "_amount",
                    "type": "uint256",
                    "internalType": "uint256"
                }
            ],
            "outputs": [],
            "stateMutability": "nonpayable"
        },
        {
            "type": "function",
            "name": "minter",
            "inputs": [],
            "outputs": [
                {
                    "name": "",
                    "type": "address",
                    "internalType": "address"
                }
            ],
            "stateMutability": "view"
        },
        {
            "type": "function",
            "name": "name",
            "inputs": [],
            "outputs": [
                {
                    "name": "",
                    "type": "string",
                    "internalType": "string"
                }
            ],
            "stateMutability": "view"
        },
        {
            "type": "function",
            "name": "nonces",
            "inputs": [
                {
                    "name": "_owner",
                    "type": "address",
                    "internalType": "address"
                }
            ],
            "outputs": [
                {
                    "name": "",
                    "type": "uint256",
                    "internalType": "uint256"
                }
            ],
            "stateMutability": "view"
        },
        {
            "type": "function",
            "name": "numCheckpoints",
            "inputs": [
                {
                    "name": "account",
                    "type": "address",
                    "internalType": "address"
                }
            ],
            "outputs": [
                {
                    "name": "",
                    "type": "uint32",
                    "internalType": "uint32"
                }
            ],
            "stateMutability": "view"
        },
        {
            "type": "function",
            "name": "owner",
            "inputs": [],
            "outputs": [
                {
                    "name": "",
                    "type": "address",
                    "internalType": "address"
                }
            ],
            "stateMutability": "view"
        },
        {
            "type": "function",
            "name": "permit",
            "inputs": [
                {
                    "name": "owner",
                    "type": "address",
                    "internalType": "address"
                },
                {
                    "name": "spender",
                    "type": "address",
                    "internalType": "address"
                },
                {
                    "name": "value",
                    "type": "uint256",
                    "internalType": "uint256"
                },
                {
                    "name": "deadline",
                    "type": "uint256",
                    "internalType": "uint256"
                },
                {
                    "name": "v",
                    "type": "uint8",
                    "internalType": "uint8"
                },
                {
                    "name": "r",
                    "type": "bytes32",
                    "internalType": "bytes32"
                },
                {
                    "name": "s",
                    "type": "bytes32",
                    "internalType": "bytes32"
                }
            ],
            "outputs": [],
            "stateMutability": "nonpayable"
        },
        {
            "type": "function",
            "name": "protocolFeePercentage",
            "inputs": [],
            "outputs": [
                {
                    "name": "",
                    "type": "uint256",
                    "internalType": "uint256"
                }
            ],
            "stateMutability": "view"
        },
        {
            "type": "function",
            "name": "remainingTokensForSale",
            "inputs": [],
            "outputs": [
                {
                    "name": "remainingTokens",
                    "type": "uint256",
                    "internalType": "uint256"
                }
            ],
            "stateMutability": "view"
        },
        {
            "type": "function",
            "name": "renounceOwnership",
            "inputs": [],
            "outputs": [],
            "stateMutability": "nonpayable"
        },
        {
            "type": "function",
            "name": "sell",
            "inputs": [
                {
                    "name": "tokensToSell",
                    "type": "uint256",
                    "internalType": "uint256"
                },
                {
                    "name": "minETH",
                    "type": "uint256",
                    "internalType": "uint256"
                }
            ],
            "outputs": [],
            "stateMutability": "nonpayable"
        },
        {
            "type": "function",
            "name": "setMinter",
            "inputs": [
                {
                    "name": "newMinter",
                    "type": "address",
                    "internalType": "address"
                }
            ],
            "outputs": [],
            "stateMutability": "nonpayable"
        },
        {
            "type": "function",
            "name": "symbol",
            "inputs": [],
            "outputs": [
                {
                    "name": "",
                    "type": "string",
                    "internalType": "string"
                }
            ],
            "stateMutability": "view"
        },
        {
            "type": "function",
            "name": "totalSupply",
            "inputs": [],
            "outputs": [
                {
                    "name": "",
                    "type": "uint256",
                    "internalType": "uint256"
                }
            ],
            "stateMutability": "view"
        },
        {
            "type": "function",
            "name": "transfer",
            "inputs": [
                {
                    "name": "to",
                    "type": "address",
                    "internalType": "address"
                },
                {
                    "name": "value",
                    "type": "uint256",
                    "internalType": "uint256"
                }
            ],
            "outputs": [
                {
                    "name": "",
                    "type": "bool",
                    "internalType": "bool"
                }
            ],
            "stateMutability": "nonpayable"
        },
        {
            "type": "function",
            "name": "transferFrom",
            "inputs": [
                {
                    "name": "from",
                    "type": "address",
                    "internalType": "address"
                },
                {
                    "name": "to",
                    "type": "address",
                    "internalType": "address"
                },
                {
                    "name": "value",
                    "type": "uint256",
                    "internalType": "uint256"
                }
            ],
            "outputs": [
                {
                    "name": "",
                    "type": "bool",
                    "internalType": "bool"
                }
            ],
            "stateMutability": "nonpayable"
        },
        {
            "type": "function",
            "name": "transferOwnership",
            "inputs": [
                {
                    "name": "newOwner",
                    "type": "address",
                    "internalType": "address"
                }
            ],
            "outputs": [],
            "stateMutability": "nonpayable"
        },
        {
            "type": "event",
            "name": "Approval",
            "inputs": [
                {
                    "name": "owner",
                    "type": "address",
                    "indexed": true,
                    "internalType": "address"
                },
                {
                    "name": "spender",
                    "type": "address",
                    "indexed": true,
                    "internalType": "address"
                },
                {
                    "name": "value",
                    "type": "uint256",
                    "indexed": false,
                    "internalType": "uint256"
                }
            ],
            "anonymous": false
        },
        {
            "type": "event",
            "name": "DelegateChanged",
            "inputs": [
                {
                    "name": "delegator",
                    "type": "address",
                    "indexed": true,
                    "internalType": "address"
                },
                {
                    "name": "fromDelegate",
                    "type": "address",
                    "indexed": true,
                    "internalType": "address"
                },
                {
                    "name": "toDelegate",
                    "type": "address",
                    "indexed": true,
                    "internalType": "address"
                }
            ],
            "anonymous": false
        },
        {
            "type": "event",
            "name": "DelegateVotesChanged",
            "inputs": [
                {
                    "name": "delegate",
                    "type": "address",
                    "indexed": true,
                    "internalType": "address"
                },
                {
                    "name": "previousVotes",
                    "type": "uint256",
                    "indexed": false,
                    "internalType": "uint256"
                },
                {
                    "name": "newVotes",
                    "type": "uint256",
                    "indexed": false,
                    "internalType": "uint256"
                }
            ],
            "anonymous": false
        },
        {
            "type": "event",
            "name": "EIP712DomainChanged",
            "inputs": [],
            "anonymous": false
        },
        {
            "type": "event",
            "name": "LiquidityAdded",
            "inputs": [
                {
                    "name": "ethAmount",
                    "type": "uint256",
                    "indexed": false,
                    "internalType": "uint256"
                },
                {
                    "name": "tokenAmount",
                    "type": "uint256",
                    "indexed": false,
                    "internalType": "uint256"
                }
            ],
            "anonymous": false
        },
        {
            "type": "event",
            "name": "NewMinter",
            "inputs": [
                {
                    "name": "newMinter",
                    "type": "address",
                    "indexed": false,
                    "internalType": "address"
                }
            ],
            "anonymous": false
        },
        {
            "type": "event",
            "name": "OwnershipTransferred",
            "inputs": [
                {
                    "name": "previousOwner",
                    "type": "address",
                    "indexed": true,
                    "internalType": "address"
                },
                {
                    "name": "newOwner",
                    "type": "address",
                    "indexed": true,
                    "internalType": "address"
                }
            ],
            "anonymous": false
        },
        {
            "type": "event",
            "name": "ProtocolFeeCollected",
            "inputs": [
                {
                    "name": "amount",
                    "type": "uint256",
                    "indexed": false,
                    "internalType": "uint256"
                }
            ],
            "anonymous": false
        },
        {
            "type": "event",
            "name": "ThankYouForYourDonation",
            "inputs": [
                {
                    "name": "sender",
                    "type": "address",
                    "indexed": false,
                    "internalType": "address"
                }
            ],
            "anonymous": false
        },
        {
            "type": "event",
            "name": "Transfer",
            "inputs": [
                {
                    "name": "from",
                    "type": "address",
                    "indexed": true,
                    "internalType": "address"
                },
                {
                    "name": "to",
                    "type": "address",
                    "indexed": true,
                    "internalType": "address"
                },
                {
                    "name": "value",
                    "type": "uint256",
                    "indexed": false,
                    "internalType": "uint256"
                }
            ],
            "anonymous": false
        },
        {
            "type": "error",
            "name": "CallerNotMinter",
            "inputs": [
                {
                    "name": "caller",
                    "type": "address",
                    "internalType": "address"
                }
            ]
        },
        {
            "type": "error",
            "name": "CheckpointUnorderedInsertion",
            "inputs": []
        },
        {
            "type": "error",
            "name": "CurveClosed",
            "inputs": []
        },
        {
            "type": "error",
            "name": "ECDSAInvalidSignature",
            "inputs": []
        },
        {
            "type": "error",
            "name": "ECDSAInvalidSignatureLength",
            "inputs": [
                {
                    "name": "length",
                    "type": "uint256",
                    "internalType": "uint256"
                }
            ]
        },
        {
            "type": "error",
            "name": "ECDSAInvalidSignatureS",
            "inputs": [
                {
                    "name": "s",
                    "type": "bytes32",
                    "internalType": "bytes32"
                }
            ]
        },
        {
            "type": "error",
            "name": "ERC20ExceededSafeSupply",
            "inputs": [
                {
                    "name": "increasedSupply",
                    "type": "uint256",
                    "internalType": "uint256"
                },
                {
                    "name": "cap",
                    "type": "uint256",
                    "internalType": "uint256"
                }
            ]
        },
        {
            "type": "error",
            "name": "ERC20InsufficientAllowance",
            "inputs": [
                {
                    "name": "spender",
                    "type": "address",
                    "internalType": "address"
                },
                {
                    "name": "allowance",
                    "type": "uint256",
                    "internalType": "uint256"
                },
                {
                    "name": "needed",
                    "type": "uint256",
                    "internalType": "uint256"
                }
            ]
        },
        {
            "type": "error",
            "name": "ERC20InsufficientBalance",
            "inputs": [
                {
                    "name": "sender",
                    "type": "address",
                    "internalType": "address"
                },
                {
                    "name": "balance",
                    "type": "uint256",
                    "internalType": "uint256"
                },
                {
                    "name": "needed",
                    "type": "uint256",
                    "internalType": "uint256"
                }
            ]
        },
        {
            "type": "error",
            "name": "ERC20InvalidApprover",
            "inputs": [
                {
                    "name": "approver",
                    "type": "address",
                    "internalType": "address"
                }
            ]
        },
        {
            "type": "error",
            "name": "ERC20InvalidReceiver",
            "inputs": [
                {
                    "name": "receiver",
                    "type": "address",
                    "internalType": "address"
                }
            ]
        },
        {
            "type": "error",
            "name": "ERC20InvalidSender",
            "inputs": [
                {
                    "name": "sender",
                    "type": "address",
                    "internalType": "address"
                }
            ]
        },
        {
            "type": "error",
            "name": "ERC20InvalidSpender",
            "inputs": [
                {
                    "name": "spender",
                    "type": "address",
                    "internalType": "address"
                }
            ]
        },
        {
            "type": "error",
            "name": "ERC2612ExpiredSignature",
            "inputs": [
                {
                    "name": "deadline",
                    "type": "uint256",
                    "internalType": "uint256"
                }
            ]
        },
        {
            "type": "error",
            "name": "ERC2612InvalidSigner",
            "inputs": [
                {
                    "name": "signer",
                    "type": "address",
                    "internalType": "address"
                },
                {
                    "name": "owner",
                    "type": "address",
                    "internalType": "address"
                }
            ]
        },
        {
            "type": "error",
            "name": "ERC5805FutureLookup",
            "inputs": [
                {
                    "name": "timepoint",
                    "type": "uint256",
                    "internalType": "uint256"
                },
                {
                    "name": "clock",
                    "type": "uint48",
                    "internalType": "uint48"
                }
            ]
        },
        {
            "type": "error",
            "name": "ERC6372InconsistentClock",
            "inputs": []
        },
        {
            "type": "error",
            "name": "ETHSendFailed",
            "inputs": []
        },
        {
            "type": "error",
            "name": "FeeSendFailed",
            "inputs": []
        },
        {
            "type": "error",
            "name": "InvalidAccountNonce",
            "inputs": [
                {
                    "name": "account",
                    "type": "address",
                    "internalType": "address"
                },
                {
                    "name": "currentNonce",
                    "type": "uint256",
                    "internalType": "uint256"
                }
            ]
        },
        {
            "type": "error",
            "name": "InvalidMinterZeroAddress",
            "inputs": []
        },
        {
            "type": "error",
            "name": "InvalidShortString",
            "inputs": []
        },
        {
            "type": "error",
            "name": "LowBalance",
            "inputs": []
        },
        {
            "type": "error",
            "name": "NoETHSent",
            "inputs": []
        },
        {
            "type": "error",
            "name": "NoTokens",
            "inputs": []
        },
        {
            "type": "error",
            "name": "OwnableInvalidOwner",
            "inputs": [
                {
                    "name": "owner",
                    "type": "address",
                    "internalType": "address"
                }
            ]
        },
        {
            "type": "error",
            "name": "OwnableUnauthorizedAccount",
            "inputs": [
                {
                    "name": "account",
                    "type": "address",
                    "internalType": "address"
                }
            ]
        },
        {
            "type": "error",
            "name": "SafeCastOverflowedUintDowncast",
            "inputs": [
                {
                    "name": "bits",
                    "type": "uint8",
                    "internalType": "uint8"
                },
                {
                    "name": "value",
                    "type": "uint256",
                    "internalType": "uint256"
                }
            ]
        },
        {
            "type": "error",
            "name": "Slippage",
            "inputs": []
        },
        {
            "type": "error",
            "name": "StringTooLong",
            "inputs": [
                {
                    "name": "str",
                    "type": "string",
                    "internalType": "string"
                }
            ]
        },
        {
            "type": "error",
            "name": "VotesExpiredSignature",
            "inputs": [
                {
                    "name": "expiry",
                    "type": "uint256",
                    "internalType": "uint256"
                }
            ]
        }
    ],
    "bytecode": {
        "object": "0x61016060405260646011556012805460ff60a01b191690553480156200002457600080fd5b506040516200348f3803806200348f8339810160408190526200004791620003d8565b888888888084848180604051806040016040528060018152602001603160f81b815250848481600390816200007d919062000530565b5060046200008c828262000530565b506200009e9150839050600562000220565b61012052620000af81600662000220565b61014052815160208084019190912060e052815190820120610100524660a0526200013d60e05161010051604080517f8b73c3c69bb8fe3d512ecc4cf759cc79239f7b179b0ffacaa9a75d522b39400f60208201529081019290925260608201524660808201523060a082015260009060c00160405160208183030381529060405280519060200120905090565b60805250503060c0525050506001600160a01b0381166200017957604051631e4fbdf760e01b8152600060048201526024015b60405180910390fd5b620001848162000259565b5050600c80546001600160a01b0319166001600160a01b039290921691909117905550620001bd905085670de0b6b3a764000062000612565b600d55620001d484670de0b6b3a764000062000612565b600e819055600f8490556011839055601280546001600160a01b0319166001600160a01b038416179055600d546200020d91906200062c565b601055506200069c975050505050505050565b600060208351101562000240576200023883620002ab565b905062000253565b816200024d848262000530565b5060ff90505b92915050565b600b80546001600160a01b038381166001600160a01b0319831681179093556040519116919082907f8be0079c531659141344cd1fd0a4f28419497f9722a3daafe3b4186f6b6457e090600090a35050565b600080829050601f81511115620002d9578260405163305a27a960e01b815260040162000170919062000642565b8051620002e68262000677565b179392505050565b634e487b7160e01b600052604160045260246000fd5b60005b838110156200032157818101518382015260200162000307565b50506000910152565b600082601f8301126200033c57600080fd5b81516001600160401b0380821115620003595762000359620002ee565b604051601f8301601f19908116603f01168101908282118183101715620003845762000384620002ee565b816040528381528660208588010111156200039e57600080fd5b620003b184602083016020890162000304565b9695505050505050565b80516001600160a01b0381168114620003d357600080fd5b919050565b60008060008060008060008060006101208a8c031215620003f857600080fd5b89516001600160401b03808211156200041057600080fd5b6200041e8d838e016200032a565b9a5060208c01519150808211156200043557600080fd5b50620004448c828d016200032a565b9850506200045560408b01620003bb565b96506200046560608b01620003bb565b955060808a0151945060a08a0151935060c08a0151925060e08a01519150620004926101008b01620003bb565b90509295985092959850929598565b600181811c90821680620004b657607f821691505b602082108103620004d757634e487b7160e01b600052602260045260246000fd5b50919050565b601f8211156200052b57600081815260208120601f850160051c81016020861015620005065750805b601f850160051c820191505b81811015620005275782815560010162000512565b5050505b505050565b81516001600160401b038111156200054c576200054c620002ee565b62000564816200055d8454620004a1565b84620004dd565b602080601f8311600181146200059c5760008415620005835750858301515b600019600386901b1c1916600185901b17855562000527565b600085815260208120601f198616915b82811015620005cd57888601518255948401946001909101908401620005ac565b5085821015620005ec5787850151600019600388901b60f8161c191681555b5050505050600190811b01905550565b634e487b7160e01b600052601160045260246000fd5b8082028115828204841417620002535762000253620005fc565b80820180821115620002535762000253620005fc565b60208152600082518060208401526200066381604085016020870162000304565b601f01601f19169190910160400192915050565b80516020808301519190811015620004d75760001960209190910360031b1b16919050565b60805160a05160c05160e051610100516101205161014051612d98620006f76000396000611ade01526000611ab1015260006117da015260006117b20152600061170d01526000611737015260006117610152612d986000f3fe6080604052600436106102005760003560e01c806379cc67901161011457806379cc67901461052e5780637ecebe001461054e57806384b0196e1461056e57806389b7096b146105965780638da5cb5b146105b75780638e50e509146105cc5780638e539e8c146105e257806391ddadf41461060257806395d89b411461062e5780639ab24eb0146106435780639b39f9bf14610663578063a9059cbb14610678578063b4f40c6114610698578063c3cda520146106ae578063c8612b2f146106ce578063d505accf146106e4578063d79875eb14610704578063d96a094a14610724578063dd62ed3e14610737578063f1127ed814610757578063f2fde38b146107a3578063fca3b5aa146107c357610269565b806306fdde031461029457806307546172146102bf578063095ea7b3146102ec57806318160ddd1461031c57806318d685f61461033b57806323b872dd1461035b578063313ce5671461037b57806332cb6b0c146103975780633644e515146103ad5780633a46b1a8146103c257806340c10f19146103e257806342966c68146104045780634bf5d7e914610424578063587cde1e146104395780635994866d146104595780635a60364c146104795780635c19a95c1461048e578063670171fd146104ae5780636fcfff45146104c457806370a08231146104f9578063715018a61461051957610269565b3661026957601254600160a01b900460ff16156102305760405163210b9e2d60e01b815260040160405180910390fd5b7f34e194fc39c27b496da6bc8f57febf6c75ae81e3ac3b8be7cbc43dd77eadbf4f3360405161025f91906128a6565b60405180910390a1005b601254600160a01b900460ff16156102305760405163210b9e2d60e01b815260040160405180910390fd5b3480156102a057600080fd5b506102a96107e3565b6040516102b69190612900565b60405180910390f35b3480156102cb57600080fd5b50600c546102df906001600160a01b031681565b6040516102b691906128a6565b3480156102f857600080fd5b5061030c61030736600461292f565b610875565b60405190151581526020016102b6565b34801561032857600080fd5b506002545b6040519081526020016102b6565b34801561034757600080fd5b5061032d610356366004612959565b61088f565b34801561036757600080fd5b5061030c610376366004612972565b6109c8565b34801561038757600080fd5b50604051601281526020016102b6565b3480156103a357600080fd5b5061032d60105481565b3480156103b957600080fd5b5061032d6109ec565b3480156103ce57600080fd5b5061032d6103dd36600461292f565b6109fb565b3480156103ee57600080fd5b506104026103fd36600461292f565b610a81565b005b34801561041057600080fd5b5061040261041f366004612959565b610abc565b34801561043057600080fd5b506102a9610ac9565b34801561044557600080fd5b506102df6104543660046129ae565b610b32565b34801561046557600080fd5b5061032d610474366004612959565b610b50565b34801561048557600080fd5b5061032d610c71565b34801561049a57600080fd5b506104026104a93660046129ae565b610d4c565b3480156104ba57600080fd5b5061032d600e5481565b3480156104d057600080fd5b506104e46104df3660046129ae565b610d57565b60405163ffffffff90911681526020016102b6565b34801561050557600080fd5b5061032d6105143660046129ae565b610d62565b34801561052557600080fd5b50610402610d7d565b34801561053a57600080fd5b5061040261054936600461292f565b610d91565b34801561055a57600080fd5b5061032d6105693660046129ae565b610da6565b34801561057a57600080fd5b50610583610dc4565b6040516102b697969594939291906129c9565b3480156105a257600080fd5b5060125461030c90600160a01b900460ff1681565b3480156105c357600080fd5b506102df610e0a565b3480156105d857600080fd5b5061032d60115481565b3480156105ee57600080fd5b5061032d6105fd366004612959565b610e19565b34801561060e57600080fd5b50610617610e83565b60405165ffffffffffff90911681526020016102b6565b34801561063a57600080fd5b506102a9610e8d565b34801561064f57600080fd5b5061032d61065e3660046129ae565b610e9c565b34801561066f57600080fd5b5061032d610ecc565b34801561068457600080fd5b5061030c61069336600461292f565b610f08565b3480156106a457600080fd5b5061032d600f5481565b3480156106ba57600080fd5b506104026106c9366004612a70565b610f16565b3480156106da57600080fd5b5061032d600d5481565b3480156106f057600080fd5b506104026106ff366004612ac8565b610fd3565b34801561071057600080fd5b5061040261071f366004612b32565b6110ef565b610402610732366004612959565b6112d5565b34801561074357600080fd5b5061032d610752366004612b54565b611538565b34801561076357600080fd5b50610777610772366004612b87565b611563565b60408051825165ffffffffffff1681526020928301516001600160d01b031692810192909252016102b6565b3480156107af57600080fd5b506104026107be3660046129ae565b61157c565b3480156107cf57600080fd5b506104026107de3660046129ae565b6115b7565b6060600380546107f290612bc7565b80601f016020809104026020016040519081016040528092919081815260200182805461081e90612bc7565b801561086b5780601f106108405761010080835404028352916020019161086b565b820191906000526020600020905b81548152906001019060200180831161084e57829003601f168201915b5050505050905090565b60003361088381858561163c565b60019150505b92915050565b6000816000036108b257604051630b7cc7c360e11b815260040160405180910390fd5b601254600160a01b900460ff16156108dd5760405163210b9e2d60e01b815260040160405180910390fd5b6000612710601154846108f09190612c17565b6108fa9190612c44565b905060006109088285612c66565b9050600061091560025490565b9050600073__$8c4eeec95d097f3d62e24c53e9684e91ec$__63855c9b188385600f546040518463ffffffff1660e01b815260040161095693929190612c79565b602060405180830381865af4158015610973573d6000803e3d6000fd5b505050506040513d601f19601f820116820180604052508101906109979190612c8f565b90506109a38282612c66565b9450600d5481106109bf5781600d546109bc9190612c66565b94505b50505050919050565b6000336109d685828561164e565b6109e18585856116a1565b506001949350505050565b60006109f6611700565b905090565b600080610a06610e83565b90508065ffffffffffff168310610a4657604051637669fc0f60e11b81526004810184905265ffffffffffff821660248201526044015b60405180910390fd5b610a70610a528461182b565b6001600160a01b03861660009081526009602052604090209061185d565b6001600160d01b0316949350505050565b600c546001600160a01b03163314610aae5733604051632fdab94f60e11b8152600401610a3d91906128a6565b610ab88282611912565b5050565b610ac63382611948565b50565b6060610ad361197e565b65ffffffffffff16610ae3610e83565b65ffffffffffff1614610b09576040516301bfc1c560e61b815260040160405180910390fd5b5060408051808201909152600e81526d06d6f64653d74696d657374616d760941b602082015290565b6001600160a01b039081166000908152600860205260409020541690565b600081600003610b735760405163df95788360e01b815260040160405180910390fd5b601254600160a01b900460ff1615610b9e5760405163210b9e2d60e01b815260040160405180910390fd5b6000610ba960025490565b90506000610bb78483612c66565b9050600073__$8c4eeec95d097f3d62e24c53e9684e91ec$__63785a05e18484600f546040518463ffffffff1660e01b8152600401610bf893929190612c79565b602060405180830381865af4158015610c15573d6000803e3d6000fd5b505050506040513d601f19601f82011682018060405250810190610c399190612c8f565b9050600061271060115483610c4e9190612c17565b610c589190612c44565b90506000610c668284612c66565b979650505050505050565b601254600090600160a01b900460ff1615610c8c5750600090565b6000610c9760025490565b600d54600f54604051634ce6eb4560e01b8152929350909173__$8c4eeec95d097f3d62e24c53e9684e91ec$__91634ce6eb4591610cdc918691869190600401612c79565b602060405180830381865af4158015610cf9573d6000803e3d6000fd5b505050506040513d601f19601f82011682018060405250810190610d1d9190612c8f565b9250601154612710610d2f9190612c66565b610d3b84612710612c17565b610d459190612c44565b9250505090565b33610ab88183611989565b600061088982611a04565b6001600160a01b031660009081526020819052604090205490565b610d85611a26565b610d8f6000611a58565b565b610d9c82338361164e565b610ab88282611948565b6001600160a01b038116600090815260076020526040812054610889565b600060608060008060006060610dd8611aaa565b610de0611ad7565b60408051600080825260208201909252600f60f81b9b939a50919850469750309650945092509050565b600b546001600160a01b031690565b600080610e24610e83565b90508065ffffffffffff168310610e5f57604051637669fc0f60e11b81526004810184905265ffffffffffff82166024820152604401610a3d565b610e73610e6b8461182b565b600a9061185d565b6001600160d01b03169392505050565b60006109f661197e565b6060600480546107f290612bc7565b6001600160a01b0381166000908152600960205260408120610ebd90611b04565b6001600160d01b031692915050565b601254600090600160a01b900460ff1615610ee75750600090565b6000610ef260025490565b905080600d54610f029190612c66565b91505090565b6000336108838185856116a1565b83421115610f3a57604051632341d78760e11b815260048101859052602401610a3d565b604080517fe48329057bfd03d55e49b547132e39cffd9c1820ad7b9d4c5307691425d15adf60208201526001600160a01b038816918101919091526060810186905260808101859052600090610fb490610fac9060a00160405160208183030381529060405280519060200120611b3d565b858585611b6a565b9050610fc08187611b98565b610fca8188611989565b50505050505050565b83421115610ff75760405163313c898160e11b815260048101859052602401610a3d565b60007f6e71edae12b1b97f4d1f60370fef10105fa2faae0126114a169c64845d6126c98888886110268c611bd7565b6040805160208101969096526001600160a01b0394851690860152929091166060840152608083015260a082015260c0810186905260e001604051602081830303815290604052805190602001209050600061108182611b3d565b9050600061109182878787611b6a565b9050896001600160a01b0316816001600160a01b0316146110d8576040516325c0072360e11b81526001600160a01b0380831660048301528b166024820152604401610a3d565b6110e38a8a8a61163c565b50505050505050505050565b601254600160a01b900460ff161561111a5760405163210b9e2d60e01b815260040160405180910390fd5b8161112433610d62565b10156111435760405163fe382aa760e01b815260040160405180910390fd5b816000036111645760405163df95788360e01b815260040160405180910390fd5b600061116f60025490565b9050600061117d8483612c66565b9050600073__$8c4eeec95d097f3d62e24c53e9684e91ec$__63785a05e18484600f546040518463ffffffff1660e01b81526004016111be93929190612c79565b602060405180830381865af41580156111db573d6000803e3d6000fd5b505050506040513d601f19601f820116820180604052508101906111ff9190612c8f565b90506000612710601154836112149190612c17565b61121e9190612c44565b9050600061122c8284612c66565b90508581101561124f576040516307dd37f760e41b815260040160405180910390fd5b6112593388611948565b61126282611bfa565b604051600090339083908381818185875af1925050503d80600081146112a4576040519150601f19603f3d011682016040523d82523d6000602084013e6112a9565b606091505b50509050806112cb5760405163cef4eed760e01b815260040160405180910390fd5b5050505050505050565b601254600160a01b900460ff16156113005760405163210b9e2d60e01b815260040160405180910390fd5b3460000361132157604051630b7cc7c360e11b815260040160405180910390fd5b6000612710601154346113349190612c17565b61133e9190612c44565b9050600061134c8234612c66565b9050600061135960025490565b9050600073__$8c4eeec95d097f3d62e24c53e9684e91ec$__63855c9b188385600f546040518463ffffffff1660e01b815260040161139a93929190612c79565b602060405180830381865af41580156113b7573d6000803e3d6000fd5b505050506040513d601f19601f820116820180604052508101906113db9190612c8f565b905060006113e98383612c66565b90508581101561140c576040516307dd37f760e41b815260040160405180910390fd5b600d54821061151d57600d5491506114248383612c66565b600f54604051634ce6eb4560e01b815291925073__$8c4eeec95d097f3d62e24c53e9684e91ec$__91634ce6eb45916114639187918791600401612c79565b602060405180830381865af4158015611480573d6000803e3d6000fd5b505050506040513d601f19601f820116820180604052508101906114a49190612c8f565b9350846000816114b48734612c66565b6114be9190612c66565b905080156114f557604051339082156108fc029083906000818181858888f193505050501580156114f3573d6000803e3d6000fd5b505b6012805460ff60a01b1916600160a01b17905561151a6115158347612c66565b611cac565b50505b61152685611bfa565b6115303382611912565b505050505050565b6001600160a01b03918216600090815260016020908152604080832093909416825291909152205490565b61156b61288f565b6115758383611cef565b9392505050565b611584611a26565b6001600160a01b0381166115ae576000604051631e4fbdf760e01b8152600401610a3d91906128a6565b610ac681611a58565b6115bf611a26565b6001600160a01b0381166115e6576040516304a208c760e01b815260040160405180910390fd5b600c80546001600160a01b0319166001600160a01b0383161790556040517f6adffd5c93085d835dac6f3b40adf7c242ca4b3284048d20c3d8a501748dc973906116319083906128a6565b60405180910390a150565b6116498383836001611d19565b505050565b600061165a8484611538565b9050600019811461169b578181101561168c57828183604051637dc7a0d960e11b8152600401610a3d93929190612ca8565b61169b84848484036000611d19565b50505050565b6001600160a01b0383166116cb576000604051634b637e8f60e11b8152600401610a3d91906128a6565b6001600160a01b0382166116f557600060405163ec442f0560e01b8152600401610a3d91906128a6565b611649838383611dee565b6000306001600160a01b037f00000000000000000000000000000000000000000000000000000000000000001614801561175957507f000000000000000000000000000000000000000000000000000000000000000046145b1561178357507f000000000000000000000000000000000000000000000000000000000000000090565b6109f6604080517f8b73c3c69bb8fe3d512ecc4cf759cc79239f7b179b0ffacaa9a75d522b39400f60208201527f0000000000000000000000000000000000000000000000000000000000000000918101919091527f000000000000000000000000000000000000000000000000000000000000000060608201524660808201523060a082015260009060c00160405160208183030381529060405280519060200120905090565b600065ffffffffffff821115611859576030826040516306dfcc6560e41b8152600401610a3d929190612cc9565b5090565b8154600090818160058111156118bc57600061187884611df9565b6118829085612c66565b60008881526020902090915081015465ffffffffffff90811690871610156118ac578091506118ba565b6118b7816001612cdc565b92505b505b60006118ca87878585611ee1565b90508015611905576118ef876118e1600184612c66565b600091825260209091200190565b54600160301b90046001600160d01b0316610c66565b6000979650505050505050565b6001600160a01b03821661193c57600060405163ec442f0560e01b8152600401610a3d91906128a6565b610ab860008383611dee565b6001600160a01b038216611972576000604051634b637e8f60e11b8152600401610a3d91906128a6565b610ab882600083611dee565b60006109f64261182b565b600061199483610b32565b6001600160a01b0384811660008181526008602052604080822080546001600160a01b031916888616908117909155905194955093928516927f3134e8a2e6d97e929a7e54011ea5485d7d196dd5f0ba4d4ef95803e8e3fc257f9190a461164981836119ff86611f43565b611f4e565b6001600160a01b038116600090815260096020526040812054610889906120ba565b33611a2f610e0a565b6001600160a01b031614610d8f573360405163118cdaa760e01b8152600401610a3d91906128a6565b600b80546001600160a01b038381166001600160a01b0319831681179093556040519116919082907f8be0079c531659141344cd1fd0a4f28419497f9722a3daafe3b4186f6b6457e090600090a35050565b60606109f67f000000000000000000000000000000000000000000000000000000000000000060056120e6565b60606109f67f000000000000000000000000000000000000000000000000000000000000000060066120e6565b80546000908015611b3457611b1e836118e1600184612c66565b54600160301b90046001600160d01b0316611575565b60009392505050565b6000610889611b4a611700565b8360405161190160f01b8152600281019290925260228201526042902090565b600080600080611b7c88888888612191565b925092509250611b8c8282612256565b50909695505050505050565b6000611ba383611bd7565b9050808214611649576040516301d4b62360e61b81526001600160a01b038416600482015260248101829052604401610a3d565b6001600160a01b0316600090815260076020526040902080546001810190915590565b8015610ac6576012546040516000916001600160a01b03169083908381818185875af1925050503d8060008114611c4d576040519150601f19603f3d011682016040523d82523d6000602084013e611c52565b606091505b5050905080611c745760405163427e1d1f60e01b815260040160405180910390fd5b6040518281527f414d7d8eae12f648156e75499fc0a5a10aa84f2745c6f791b0453cb17f1e17fa906020015b60405180910390a15050565b600e54611cb93082611912565b60408051838152602081018390527f38f8a0c92f4c5b0b6877f878cb4c0c8d348a47b76d716c8e78f425043df9515b9101611ca0565b611cf761288f565b6001600160a01b0383166000908152600960205260409020611575908361230f565b6001600160a01b038416611d4357600060405163e602df0560e01b8152600401610a3d91906128a6565b6001600160a01b038316611d6d576000604051634a1406b160e11b8152600401610a3d91906128a6565b6001600160a01b038085166000908152600160209081526040808320938716835292905220829055801561169b57826001600160a01b0316846001600160a01b03167f8c5be1e5ebec7d5bd14f71427d1e84f3dd0314c0f7b2291e5b200ac8c7c3b92584604051611de091815260200190565b60405180910390a350505050565b611649838383612373565b600081600003611e0b57506000919050565b60006001611e188461237e565b901c6001901b90506001818481611e3157611e31612c2e565b048201901c90506001818481611e4957611e49612c2e565b048201901c90506001818481611e6157611e61612c2e565b048201901c90506001818481611e7957611e79612c2e565b048201901c90506001818481611e9157611e91612c2e565b048201901c90506001818481611ea957611ea9612c2e565b048201901c90506001818481611ec157611ec1612c2e565b048201901c905061157581828581611edb57611edb612c2e565b04612412565b60005b81831015611f3b576000611ef88484612428565b60008781526020902090915065ffffffffffff86169082015465ffffffffffff161115611f2757809250611f35565b611f32816001612cdc565b93505b50611ee4565b509392505050565b600061088982610d62565b816001600160a01b0316836001600160a01b031614158015611f705750600081115b15611649576001600160a01b03831615612018576001600160a01b03831660009081526009602052604081208190611fb390612443611fae8661244f565b61247e565b6001600160d01b031691506001600160d01b03169150846001600160a01b03167fdec2bacdd2f05b59de34da9b523dff8be42e5e38e818c82fdb0bae774387a724838360405161200d929190918252602082015260400190565b60405180910390a250505b6001600160a01b03821615611649576001600160a01b03821660009081526009602052604081208190612051906124b7611fae8661244f565b6001600160d01b031691506001600160d01b03169150836001600160a01b03167fdec2bacdd2f05b59de34da9b523dff8be42e5e38e818c82fdb0bae774387a72483836040516120ab929190918252602082015260400190565b60405180910390a25050505050565b600063ffffffff821115611859576020826040516306dfcc6560e41b8152600401610a3d929190612cc9565b606060ff8314612100576120f9836124c3565b9050610889565b81805461210c90612bc7565b80601f016020809104026020016040519081016040528092919081815260200182805461213890612bc7565b80156121855780601f1061215a57610100808354040283529160200191612185565b820191906000526020600020905b81548152906001019060200180831161216857829003601f168201915b50505050509050610889565b600080806fa2a8918ca85bafe22016d0b997e4df60600160ff1b038411156121c2575060009150600390508261224c565b604080516000808252602082018084528a905260ff891692820192909252606081018790526080810186905260019060a0016020604051602081039080840390855afa158015612216573d6000803e3d6000fd5b5050604051601f1901519150506001600160a01b0381166122425750600092506001915082905061224c565b9250600091508190505b9450945094915050565b600082600381111561226a5761226a612cef565b03612273575050565b600182600381111561228757612287612cef565b036122a55760405163f645eedf60e01b815260040160405180910390fd5b60028260038111156122b9576122b9612cef565b036122da5760405163fce698f760e01b815260048101829052602401610a3d565b60038260038111156122ee576122ee612cef565b03610ab8576040516335e2f38360e21b815260048101829052602401610a3d565b61231761288f565b826000018263ffffffff168154811061233257612332612d05565b60009182526020918290206040805180820190915291015465ffffffffffff81168252600160301b90046001600160d01b0316918101919091529392505050565b611649838383612502565b600080608083901c1561239357608092831c92015b604083901c156123a557604092831c92015b602083901c156123b757602092831c92015b601083901c156123c957601092831c92015b600883901c156123db57600892831c92015b600483901c156123ed57600492831c92015b600283901c156123ff57600292831c92015b600183901c156108895760010192915050565b60008183106124215781611575565b5090919050565b60006124376002848418612c44565b61157590848416612cdc565b60006115758284612d1b565b60006001600160d01b038211156118595760d0826040516306dfcc6560e41b8152600401610a3d929190612cc9565b6000806124aa61248c610e83565b6124a261249888611b04565b868863ffffffff16565b879190612569565b915091505b935093915050565b60006115758284612d42565b606060006124d083612577565b604080516020808252818301909252919250600091906020820181803683375050509182525060208101929092525090565b61250d83838361259f565b6001600160a01b03831661255e57600061252660025490565b90506001600160d01b038082111561255b57604051630e58ae9360e11b81526004810183905260248101829052604401610a3d565b50505b6116498383836126b6565b6000806124aa858585612715565b600060ff8216601f81111561088957604051632cd44ac360e21b815260040160405180910390fd5b6001600160a01b0383166125ca5780600260008282546125bf9190612cdc565b909155506126299050565b6001600160a01b0383166000908152602081905260409020548181101561260a5783818360405163391434e360e21b8152600401610a3d93929190612ca8565b6001600160a01b03841660009081526020819052604090209082900390555b6001600160a01b03821661264557600280548290039055612664565b6001600160a01b03821660009081526020819052604090208054820190555b816001600160a01b0316836001600160a01b03167fddf252ad1be2c89b69c2b068fc378daa952ba7f163c4a11628f55a4df523b3ef836040516126a991815260200190565b60405180910390a3505050565b6001600160a01b0383166126d8576126d5600a6124b7611fae8461244f565b50505b6001600160a01b0382166126fa576126f7600a612443611fae8461244f565b50505b61164961270684610b32565b61270f84610b32565b83611f4e565b825460009081908015612834576000612733876118e1600185612c66565b60408051808201909152905465ffffffffffff808216808452600160301b9092046001600160d01b03166020840152919250908716101561278757604051632520601d60e01b815260040160405180910390fd5b805165ffffffffffff8088169116036127d357846127aa886118e1600186612c66565b80546001600160d01b0392909216600160301b0265ffffffffffff909216919091179055612824565b6040805180820190915265ffffffffffff80881682526001600160d01b0380881660208085019182528b54600181018d5560008d81529190912094519151909216600160301b029216919091179101555b6020015192508391506124af9050565b50506040805180820190915265ffffffffffff80851682526001600160d01b0380851660208085019182528854600181018a5560008a815291822095519251909316600160301b0291909316179201919091559050816124af565b604080518082019091526000808252602082015290565b6001600160a01b0391909116815260200190565b6000815180845260005b818110156128e0576020818501810151868301820152016128c4565b506000602082860101526020601f19601f83011685010191505092915050565b60208152600061157560208301846128ba565b80356001600160a01b038116811461292a57600080fd5b919050565b6000806040838503121561294257600080fd5b61294b83612913565b946020939093013593505050565b60006020828403121561296b57600080fd5b5035919050565b60008060006060848603121561298757600080fd5b61299084612913565b925061299e60208501612913565b9150604084013590509250925092565b6000602082840312156129c057600080fd5b61157582612913565b60ff60f81b881681526000602060e0818401526129e960e084018a6128ba565b83810360408501526129fb818a6128ba565b606085018990526001600160a01b038816608086015260a0850187905284810360c0860152855180825283870192509083019060005b81811015612a4d57835183529284019291840191600101612a31565b50909c9b505050505050505050505050565b803560ff8116811461292a57600080fd5b60008060008060008060c08789031215612a8957600080fd5b612a9287612913565b95506020870135945060408701359350612aae60608801612a5f565b92506080870135915060a087013590509295509295509295565b600080600080600080600060e0888a031215612ae357600080fd5b612aec88612913565b9650612afa60208901612913565b95506040880135945060608801359350612b1660808901612a5f565b925060a0880135915060c0880135905092959891949750929550565b60008060408385031215612b4557600080fd5b50508035926020909101359150565b60008060408385031215612b6757600080fd5b612b7083612913565b9150612b7e60208401612913565b90509250929050565b60008060408385031215612b9a57600080fd5b612ba383612913565b9150602083013563ffffffff81168114612bbc57600080fd5b809150509250929050565b600181811c90821680612bdb57607f821691505b602082108103612bfb57634e487b7160e01b600052602260045260246000fd5b50919050565b634e487b7160e01b600052601160045260246000fd5b808202811582820484141761088957610889612c01565b634e487b7160e01b600052601260045260246000fd5b600082612c6157634e487b7160e01b600052601260045260246000fd5b500490565b8181038181111561088957610889612c01565b9283526020830191909152604082015260600190565b600060208284031215612ca157600080fd5b5051919050565b6001600160a01b039390931683526020830191909152604082015260600190565b60ff929092168252602082015260400190565b8082018082111561088957610889612c01565b634e487b7160e01b600052602160045260246000fd5b634e487b7160e01b600052603260045260246000fd5b6001600160d01b03828116828216039080821115612d3b57612d3b612c01565b5092915050565b6001600160d01b03818116838216019080821115612d3b57612d3b612c0156fea2646970667358221220ac00c42067e0cf98fe486a3c858dcb22967e27dc773c3bd7867e535796675fce64736f6c63430008150033",
        "linkReferences": {
            "src/BondingCurveLib.sol": {
                "BondingCurveLib": [
                    {
                        "start": 4114,
                        "length": 20
                    },
                    {
                        "start": 4788,
                        "length": 20
                    },
                    {
                        "start": 5032,
                        "length": 20
                    },
                    {
                        "start": 6266,
                        "length": 20
                    },
                    {
                        "start": 6742,
                        "length": 20
                    },
                    {
                        "start": 6960,
                        "length": 20
                    }
                ]
            }
        }
    },
    "methodIdentifiers": {
        "CLOCK_MODE()": "4bf5d7e9",
        "DOMAIN_SEPARATOR()": "3644e515",
        "LP_SUPPLY()": "670171fd",
        "MAX_SUPPLY()": "32cb6b0c",
        "TOKENS_FOR_SALE()": "c8612b2f",
        "allowance(address,address)": "dd62ed3e",
        "approve(address,uint256)": "095ea7b3",
        "balanceOf(address)": "70a08231",
        "burn(uint256)": "42966c68",
        "burnFrom(address,uint256)": "79cc6790",
        "buy(uint256)": "d96a094a",
        "checkpoints(address,uint32)": "f1127ed8",
        "clock()": "91ddadf4",
        "decimals()": "313ce567",
        "delegate(address)": "5c19a95c",
        "delegateBySig(address,uint256,uint256,uint8,bytes32,bytes32)": "c3cda520",
        "delegates(address)": "587cde1e",
        "eip712Domain()": "84b0196e",
        "estimateBuy(uint256)": "18d685f6",
        "estimateSell(uint256)": "5994866d",
        "ethRequiredToBuyRemainingTokens()": "5a60364c",
        "getPastTotalSupply(uint256)": "8e539e8c",
        "getPastVotes(address,uint256)": "3a46b1a8",
        "getVotes(address)": "9ab24eb0",
        "isCurveClosed()": "89b7096b",
        "k()": "b4f40c61",
        "mint(address,uint256)": "40c10f19",
        "minter()": "07546172",
        "name()": "06fdde03",
        "nonces(address)": "7ecebe00",
        "numCheckpoints(address)": "6fcfff45",
        "owner()": "8da5cb5b",
        "permit(address,address,uint256,uint256,uint8,bytes32,bytes32)": "d505accf",
        "protocolFeePercentage()": "8e50e509",
        "remainingTokensForSale()": "9b39f9bf",
        "renounceOwnership()": "715018a6",
        "sell(uint256,uint256)": "d79875eb",
        "setMinter(address)": "fca3b5aa",
        "symbol()": "95d89b41",
        "totalSupply()": "18160ddd",
        "transfer(address,uint256)": "a9059cbb",
        "transferFrom(address,address,uint256)": "23b872dd",
        "transferOwnership(address)": "f2fde38b"
    },
    "id": 50
}